{
  "contractName": "ERC20StakingPool",
  "abi": [
    {
      "inputs": [
        {
          "internalType": "address",
          "name": "_stakeToken",
          "type": "address"
        },
        {
          "internalType": "address",
          "name": "_rewardToken",
          "type": "address"
        },
        {
          "internalType": "address",
          "name": "_feeAddress",
          "type": "address"
        },
        {
          "internalType": "uint256",
          "name": "_feeRate",
          "type": "uint256"
        },
        {
          "internalType": "uint256",
          "name": "_returnRate",
          "type": "uint256"
        }
      ],
      "stateMutability": "nonpayable",
      "type": "constructor"
    },
    {
      "anonymous": false,
      "inputs": [
        {
          "indexed": true,
          "internalType": "address",
          "name": "previousOwner",
          "type": "address"
        },
        {
          "indexed": true,
          "internalType": "address",
          "name": "newOwner",
          "type": "address"
        }
      ],
      "name": "OwnershipTransferred",
      "type": "event"
    },
    {
      "anonymous": false,
      "inputs": [
        {
          "indexed": true,
          "internalType": "address",
          "name": "user",
          "type": "address"
        },
        {
          "indexed": false,
          "internalType": "uint256",
          "name": "amount",
          "type": "uint256"
        }
      ],
      "name": "Redeem",
      "type": "event"
    },
    {
      "anonymous": false,
      "inputs": [
        {
          "indexed": true,
          "internalType": "address",
          "name": "user",
          "type": "address"
        },
        {
          "indexed": false,
          "internalType": "uint256",
          "name": "amount",
          "type": "uint256"
        }
      ],
      "name": "Staked",
      "type": "event"
    },
    {
      "anonymous": false,
      "inputs": [
        {
          "indexed": true,
          "internalType": "address",
          "name": "user",
          "type": "address"
        },
        {
          "indexed": false,
          "internalType": "uint256",
          "name": "amount",
          "type": "uint256"
        }
      ],
      "name": "Unstake",
      "type": "event"
    },
    {
      "inputs": [
        {
          "internalType": "address",
          "name": "",
          "type": "address"
        }
      ],
      "name": "lastUpdateTime",
      "outputs": [
        {
          "internalType": "uint256",
          "name": "",
          "type": "uint256"
        }
      ],
      "stateMutability": "view",
      "type": "function"
    },
    {
      "inputs": [],
      "name": "owner",
      "outputs": [
        {
          "internalType": "address",
          "name": "",
          "type": "address"
        }
      ],
      "stateMutability": "view",
      "type": "function"
    },
    {
      "inputs": [],
      "name": "renounceOwnership",
      "outputs": [],
      "stateMutability": "nonpayable",
      "type": "function"
    },
    {
      "inputs": [
        {
          "internalType": "address",
          "name": "",
          "type": "address"
        }
      ],
      "name": "reward",
      "outputs": [
        {
          "internalType": "uint256",
          "name": "",
          "type": "uint256"
        }
      ],
      "stateMutability": "view",
      "type": "function"
    },
    {
      "inputs": [],
      "name": "totalStaked",
      "outputs": [
        {
          "internalType": "uint256",
          "name": "",
          "type": "uint256"
        }
      ],
      "stateMutability": "view",
      "type": "function"
    },
    {
      "inputs": [
        {
          "internalType": "address",
          "name": "newOwner",
          "type": "address"
        }
      ],
      "name": "transferOwnership",
      "outputs": [],
      "stateMutability": "nonpayable",
      "type": "function"
    },
    {
      "inputs": [],
      "name": "getFeeAddress",
      "outputs": [
        {
          "internalType": "address",
          "name": "",
          "type": "address"
        }
      ],
      "stateMutability": "view",
      "type": "function"
    },
    {
      "inputs": [
        {
          "internalType": "address",
          "name": "_feeAddress",
          "type": "address"
        }
      ],
      "name": "setFeeAddress",
      "outputs": [],
      "stateMutability": "nonpayable",
      "type": "function"
    },
    {
      "inputs": [],
      "name": "getFeeRate",
      "outputs": [
        {
          "internalType": "uint256",
          "name": "",
          "type": "uint256"
        }
      ],
      "stateMutability": "view",
      "type": "function"
    },
    {
      "inputs": [
        {
          "internalType": "uint256",
          "name": "_feeRate",
          "type": "uint256"
        }
      ],
      "name": "setFeeRate",
      "outputs": [],
      "stateMutability": "nonpayable",
      "type": "function"
    },
    {
      "inputs": [],
      "name": "getReturnRate",
      "outputs": [
        {
          "internalType": "uint256",
          "name": "",
          "type": "uint256"
        }
      ],
      "stateMutability": "view",
      "type": "function"
    },
    {
      "inputs": [
        {
          "internalType": "uint256",
          "name": "_returnRate",
          "type": "uint256"
        }
      ],
      "name": "setReturnRate",
      "outputs": [],
      "stateMutability": "nonpayable",
      "type": "function"
    },
    {
      "inputs": [
        {
          "internalType": "address",
          "name": "account",
          "type": "address"
        }
      ],
      "name": "balanceOf",
      "outputs": [
        {
          "internalType": "uint256",
          "name": "",
          "type": "uint256"
        }
      ],
      "stateMutability": "view",
      "type": "function"
    },
    {
      "inputs": [
        {
          "internalType": "address",
          "name": "account",
          "type": "address"
        }
      ],
      "name": "manualUpdate",
      "outputs": [],
      "stateMutability": "nonpayable",
      "type": "function"
    },
    {
      "inputs": [
        {
          "internalType": "address",
          "name": "account",
          "type": "address"
        }
      ],
      "name": "earned",
      "outputs": [
        {
          "internalType": "uint256",
          "name": "",
          "type": "uint256"
        }
      ],
      "stateMutability": "view",
      "type": "function"
    },
    {
      "inputs": [
        {
          "internalType": "uint256",
          "name": "amount",
          "type": "uint256"
        }
      ],
      "name": "stake",
      "outputs": [],
      "stateMutability": "nonpayable",
      "type": "function"
    },
    {
      "inputs": [
        {
          "internalType": "uint256",
          "name": "amount",
          "type": "uint256"
        }
      ],
      "name": "withdraw",
      "outputs": [],
      "stateMutability": "nonpayable",
      "type": "function"
    },
    {
      "inputs": [],
      "name": "exit",
      "outputs": [],
      "stateMutability": "nonpayable",
      "type": "function"
    },
    {
      "inputs": [],
      "name": "redeem",
      "outputs": [],
      "stateMutability": "nonpayable",
      "type": "function"
    }
  ],
  "bytecode": "0x6080604052600060095534801561001557600080fd5b5060405161259e38038061259e833981810160405260a081101561003857600080fd5b81019080805190602001909291908051906020019092919080519060200190929190805190602001909291908051906020019092919050505060016000819055506000610092610227640100000000026401000000009004565b905080600160006101000a81548173ffffffffffffffffffffffffffffffffffffffff021916908373ffffffffffffffffffffffffffffffffffffffff1602179055508073ffffffffffffffffffffffffffffffffffffffff16600073ffffffffffffffffffffffffffffffffffffffff167f8be0079c531659141344cd1fd0a4f28419497f9722a3daafe3b4186f6b6457e060405160405180910390a35084600260006101000a81548173ffffffffffffffffffffffffffffffffffffffff021916908373ffffffffffffffffffffffffffffffffffffffff16021790555083600360006101000a81548173ffffffffffffffffffffffffffffffffffffffff021916908373ffffffffffffffffffffffffffffffffffffffff16021790555082600460006101000a81548173ffffffffffffffffffffffffffffffffffffffff021916908373ffffffffffffffffffffffffffffffffffffffff16021790555081600581905550806006819055506000600760006101000a81548160ff021916908315150217905550505050505061022f565b600033905090565b6123608061023e6000396000f3fe608060405234801561001057600080fd5b506004361061013d576000357c01000000000000000000000000000000000000000000000000000000009004806370a08231116100ca5780638da5cb5b1161008e5780638da5cb5b1461044c578063a694fc3a14610480578063be040fb0146104ae578063e9fad8ee146104b8578063f2fde38b146104c25761013d565b806370a082311461036a578063715018a6146103c2578063817b1cd2146103cc57806384e5eed0146103ea5780638705fcd4146104085761013d565b806337e332bb1161011157806337e332bb1461024e57806345596e2e1461026c5780634e7ceacb1461029a57806353ad5256146102ce5780636353586b146103125761013d565b80628cc262146101425780632ce9aead1461019a5780632e1a7d4d146101f25780632f9999e714610220575b600080fd5b6101846004803603602081101561015857600080fd5b81019080803573ffffffffffffffffffffffffffffffffffffffff169060200190929190505050610506565b6040518082815260200191505060405180910390f35b6101dc600480360360208110156101b057600080fd5b81019080803573ffffffffffffffffffffffffffffffffffffffff1690602001909291905050506105f5565b6040518082815260200191505060405180910390f35b61021e6004803603602081101561020857600080fd5b810190808035906020019092919050505061060d565b005b61024c6004803603602081101561023657600080fd5b8101908080359060200190929190505050610a4a565b005b610256610c1e565b6040518082815260200191505060405180910390f35b6102986004803603602081101561028257600080fd5b8101908080359060200190929190505050610c28565b005b6102a2610dfc565b604051808273ffffffffffffffffffffffffffffffffffffffff16815260200191505060405180910390f35b610310600480360360208110156102e457600080fd5b81019080803573ffffffffffffffffffffffffffffffffffffffff169060200190929190505050610e26565b005b6103546004803603602081101561032857600080fd5b81019080803573ffffffffffffffffffffffffffffffffffffffff169060200190929190505050610f77565b6040518082815260200191505060405180910390f35b6103ac6004803603602081101561038057600080fd5b81019080803573ffffffffffffffffffffffffffffffffffffffff169060200190929190505050610f8f565b6040518082815260200191505060405180910390f35b6103ca610fd8565b005b6103d4611163565b6040518082815260200191505060405180910390f35b6103f2611169565b6040518082815260200191505060405180910390f35b61044a6004803603602081101561041e57600080fd5b81019080803573ffffffffffffffffffffffffffffffffffffffff169060200190929190505050611173565b005b61045461130a565b604051808273ffffffffffffffffffffffffffffffffffffffff16815260200191505060405180910390f35b6104ac6004803603602081101561049657600080fd5b8101908080359060200190929190505050611334565b005b6104b6611904565b005b6104c0611cd4565b005b610504600480360360208110156104d857600080fd5b81019080803573ffffffffffffffffffffffffffffffffffffffff169060200190929190505050611cee565b005b600080429050600760009054906101000a900460ff16156105275760085490505b600061057b600b60008673ffffffffffffffffffffffffffffffffffffffff1673ffffffffffffffffffffffffffffffffffffffff1681526020019081526020016000205483611efe90919063ffffffff16565b9050600061058885610f8f565b905060006105968383611f48565b90506105ea81600c60008973ffffffffffffffffffffffffffffffffffffffff1673ffffffffffffffffffffffffffffffffffffffff16815260200190815260200160002054611fdc90919063ffffffff16565b945050505050919050565b600b6020528060005260406000206000915090505481565b610615612064565b600073ffffffffffffffffffffffffffffffffffffffff168173ffffffffffffffffffffffffffffffffffffffff16146106da5761065281610506565b600c60008373ffffffffffffffffffffffffffffffffffffffff1673ffffffffffffffffffffffffffffffffffffffff1681526020019081526020016000208190555042600b60008373ffffffffffffffffffffffffffffffffffffffff1673ffffffffffffffffffffffffffffffffffffffff168152602001908152602001600020819055505b60026000541415610753576040517f08c379a000000000000000000000000000000000000000000000000000000000815260040180806020018281038252601f8152602001807f5265656e7472616e637947756172643a207265656e7472616e742063616c6c0081525060200191505060405180910390fd5b6002600081905550600082116107d1576040517f08c379a00000000000000000000000000000000000000000000000000000000081526004018080602001828103825260118152602001807f43616e6e6f74207769746864726177203000000000000000000000000000000081525060200191505060405180910390fd5b6107e16107dc612064565b610f8f565b821115610839576040517f08c379a00000000000000000000000000000000000000000000000000000000081526004018080602001828103825260218152602001806122c36021913960400191505060405180910390fd5b600260009054906101000a900473ffffffffffffffffffffffffffffffffffffffff1673ffffffffffffffffffffffffffffffffffffffff1663a9059cbb61087f612064565b846040518363ffffffff167c0100000000000000000000000000000000000000000000000000000000028152600401808373ffffffffffffffffffffffffffffffffffffffff16815260200182815260200192505050602060405180830381600087803b1580156108ef57600080fd5b505af1158015610903573d6000803e3d6000fd5b505050506040513d602081101561091957600080fd5b81019080805190602001909291905050505061098482600a600061093b612064565b73ffffffffffffffffffffffffffffffffffffffff1673ffffffffffffffffffffffffffffffffffffffff16815260200190815260200160002054611efe90919063ffffffff16565b600a6000610990612064565b73ffffffffffffffffffffffffffffffffffffffff1673ffffffffffffffffffffffffffffffffffffffff168152602001908152602001600020819055506109e382600954611efe90919063ffffffff16565b6009819055506109f1612064565b73ffffffffffffffffffffffffffffffffffffffff167f85082129d87b2fe11527cb1b3b7a520aeb5aa6913f88a3d8757fe40d1db02fdd836040518082815260200191505060405180910390a260016000819055505050565b610a52612064565b73ffffffffffffffffffffffffffffffffffffffff16600160009054906101000a900473ffffffffffffffffffffffffffffffffffffffff1673ffffffffffffffffffffffffffffffffffffffff1614610b14576040517f08c379a00000000000000000000000000000000000000000000000000000000081526004018080602001828103825260208152602001807f4f776e61626c653a2063616c6c6572206973206e6f7420746865206f776e657281525060200191505060405180910390fd5b60026000541415610b8d576040517f08c379a000000000000000000000000000000000000000000000000000000000815260040180806020018281038252601f8152602001807f5265656e7472616e637947756172643a207265656e7472616e742063616c6c0081525060200191505060405180910390fd5b60026000819055506103e88111610c0c576040517f08c379a00000000000000000000000000000000000000000000000000000000081526004018080602001828103825260158152602001807f52657475726e207261746520746f6f20736d616c6c000000000000000000000081525060200191505060405180910390fd5b80600681905550600160008190555050565b6000600654905090565b610c30612064565b73ffffffffffffffffffffffffffffffffffffffff16600160009054906101000a900473ffffffffffffffffffffffffffffffffffffffff1673ffffffffffffffffffffffffffffffffffffffff1614610cf2576040517f08c379a00000000000000000000000000000000000000000000000000000000081526004018080602001828103825260208152602001807f4f776e61626c653a2063616c6c6572206973206e6f7420746865206f776e657281525060200191505060405180910390fd5b60026000541415610d6b576040517f08c379a000000000000000000000000000000000000000000000000000000000815260040180806020018281038252601f8152602001807f5265656e7472616e637947756172643a207265656e7472616e742063616c6c0081525060200191505060405180910390fd5b60026000819055506103e88111610dea576040517f08c379a00000000000000000000000000000000000000000000000000000000081526004018080602001828103825260128152602001807f466565207261746520746f6f20736d616c6c000000000000000000000000000081525060200191505060405180910390fd5b80600581905550600160008190555050565b6000600460009054906101000a900473ffffffffffffffffffffffffffffffffffffffff16905090565b60026000541415610e9f576040517f08c379a000000000000000000000000000000000000000000000000000000000815260040180806020018281038252601f8152602001807f5265656e7472616e637947756172643a207265656e7472616e742063616c6c0081525060200191505060405180910390fd5b6002600081905550600073ffffffffffffffffffffffffffffffffffffffff168173ffffffffffffffffffffffffffffffffffffffff1614610f6c57610ee481610506565b600c60008373ffffffffffffffffffffffffffffffffffffffff1673ffffffffffffffffffffffffffffffffffffffff1681526020019081526020016000208190555042600b60008373ffffffffffffffffffffffffffffffffffffffff1673ffffffffffffffffffffffffffffffffffffffff168152602001908152602001600020819055505b600160008190555050565b600c6020528060005260406000206000915090505481565b6000600a60008373ffffffffffffffffffffffffffffffffffffffff1673ffffffffffffffffffffffffffffffffffffffff168152602001908152602001600020549050919050565b610fe0612064565b73ffffffffffffffffffffffffffffffffffffffff16600160009054906101000a900473ffffffffffffffffffffffffffffffffffffffff1673ffffffffffffffffffffffffffffffffffffffff16146110a2576040517f08c379a00000000000000000000000000000000000000000000000000000000081526004018080602001828103825260208152602001807f4f776e61626c653a2063616c6c6572206973206e6f7420746865206f776e657281525060200191505060405180910390fd5b600073ffffffffffffffffffffffffffffffffffffffff16600160009054906101000a900473ffffffffffffffffffffffffffffffffffffffff1673ffffffffffffffffffffffffffffffffffffffff167f8be0079c531659141344cd1fd0a4f28419497f9722a3daafe3b4186f6b6457e060405160405180910390a36000600160006101000a81548173ffffffffffffffffffffffffffffffffffffffff021916908373ffffffffffffffffffffffffffffffffffffffff160217905550565b60095481565b6000600554905090565b61117b612064565b73ffffffffffffffffffffffffffffffffffffffff16600160009054906101000a900473ffffffffffffffffffffffffffffffffffffffff1673ffffffffffffffffffffffffffffffffffffffff161461123d576040517f08c379a00000000000000000000000000000000000000000000000000000000081526004018080602001828103825260208152602001807f4f776e61626c653a2063616c6c6572206973206e6f7420746865206f776e657281525060200191505060405180910390fd5b600260005414156112b6576040517f08c379a000000000000000000000000000000000000000000000000000000000815260040180806020018281038252601f8152602001807f5265656e7472616e637947756172643a207265656e7472616e742063616c6c0081525060200191505060405180910390fd5b600260008190555080600460006101000a81548173ffffffffffffffffffffffffffffffffffffffff021916908373ffffffffffffffffffffffffffffffffffffffff160217905550600160008190555050565b6000600160009054906101000a900473ffffffffffffffffffffffffffffffffffffffff16905090565b61133c612064565b600073ffffffffffffffffffffffffffffffffffffffff168173ffffffffffffffffffffffffffffffffffffffff16146114015761137981610506565b600c60008373ffffffffffffffffffffffffffffffffffffffff1673ffffffffffffffffffffffffffffffffffffffff1681526020019081526020016000208190555042600b60008373ffffffffffffffffffffffffffffffffffffffff1673ffffffffffffffffffffffffffffffffffffffff168152602001908152602001600020819055505b6002600054141561147a576040517f08c379a000000000000000000000000000000000000000000000000000000000815260040180806020018281038252601f8152602001807f5265656e7472616e637947756172643a207265656e7472616e742063616c6c0081525060200191505060405180910390fd5b600260008190555060648210156114f9576040517f08c379a000000000000000000000000000000000000000000000000000000000815260040180806020018281038252600f8152602001807f546f6f20736d616c6c207374616b65000000000000000000000000000000000081525060200191505060405180910390fd5b600760009054906101000a900460ff161561157c576040517f08c379a00000000000000000000000000000000000000000000000000000000081526004018080602001828103825260128152602001807f436f6e74726163742069732066726f7a656e000000000000000000000000000081525060200191505060405180910390fd5b60006115ad670de0b6b3a764000061159f6005548661206c90919063ffffffff16565b6120f290919063ffffffff16565b905060006115c48285611efe90919063ffffffff16565b905061161f81600a60006115d6612064565b73ffffffffffffffffffffffffffffffffffffffff1673ffffffffffffffffffffffffffffffffffffffff16815260200190815260200160002054611fdc90919063ffffffff16565b600a600061162b612064565b73ffffffffffffffffffffffffffffffffffffffff1673ffffffffffffffffffffffffffffffffffffffff1681526020019081526020016000208190555061167e81600954611fdc90919063ffffffff16565b600981905550600260009054906101000a900473ffffffffffffffffffffffffffffffffffffffff1673ffffffffffffffffffffffffffffffffffffffff166323b872dd6116ca612064565b30876040518463ffffffff167c0100000000000000000000000000000000000000000000000000000000028152600401808473ffffffffffffffffffffffffffffffffffffffff1681526020018373ffffffffffffffffffffffffffffffffffffffff1681526020018281526020019350505050602060405180830381600087803b15801561175857600080fd5b505af115801561176c573d6000803e3d6000fd5b505050506040513d602081101561178257600080fd5b810190808051906020019092919050505050600260009054906101000a900473ffffffffffffffffffffffffffffffffffffffff1673ffffffffffffffffffffffffffffffffffffffff1663a9059cbb600460009054906101000a900473ffffffffffffffffffffffffffffffffffffffff16846040518363ffffffff167c0100000000000000000000000000000000000000000000000000000000028152600401808373ffffffffffffffffffffffffffffffffffffffff16815260200182815260200192505050602060405180830381600087803b15801561186557600080fd5b505af1158015611879573d6000803e3d6000fd5b505050506040513d602081101561188f57600080fd5b8101908080519060200190929190505050506118a9612064565b73ffffffffffffffffffffffffffffffffffffffff167f9e71bc8eea02a63969f509818f2dafb9254532904319f9dbda79b67bd34a5f3d826040518082815260200191505060405180910390a2505060016000819055505050565b61190c612064565b600073ffffffffffffffffffffffffffffffffffffffff168173ffffffffffffffffffffffffffffffffffffffff16146119d15761194981610506565b600c60008373ffffffffffffffffffffffffffffffffffffffff1673ffffffffffffffffffffffffffffffffffffffff1681526020019081526020016000208190555042600b60008373ffffffffffffffffffffffffffffffffffffffff1673ffffffffffffffffffffffffffffffffffffffff168152602001908152602001600020819055505b60026000541415611a4a576040517f08c379a000000000000000000000000000000000000000000000000000000000815260040180806020018281038252601f8152602001807f5265656e7472616e637947756172643a207265656e7472616e742063616c6c0081525060200191505060405180910390fd5b60026000819055506000600c6000611a60612064565b73ffffffffffffffffffffffffffffffffffffffff1673ffffffffffffffffffffffffffffffffffffffff1681526020019081526020016000205411611b0e576040517f08c379a00000000000000000000000000000000000000000000000000000000081526004018080602001828103825260118152602001807f4e6f7468696e6720746f2072656465656d00000000000000000000000000000081525060200191505060405180910390fd5b6000600c6000611b1c612064565b73ffffffffffffffffffffffffffffffffffffffff1673ffffffffffffffffffffffffffffffffffffffff1681526020019081526020016000205490506000600c6000611b67612064565b73ffffffffffffffffffffffffffffffffffffffff1673ffffffffffffffffffffffffffffffffffffffff16815260200190815260200160002081905550600360009054906101000a900473ffffffffffffffffffffffffffffffffffffffff1673ffffffffffffffffffffffffffffffffffffffff166340c10f19611beb612064565b836040518363ffffffff167c0100000000000000000000000000000000000000000000000000000000028152600401808373ffffffffffffffffffffffffffffffffffffffff16815260200182815260200192505050600060405180830381600087803b158015611c5b57600080fd5b505af1158015611c6f573d6000803e3d6000fd5b50505050611c7b612064565b73ffffffffffffffffffffffffffffffffffffffff167f222838db2794d11532d940e8dec38ae307ed0b63cd97c233322e221f998767a6826040518082815260200191505060405180910390a250600160008190555050565b611cec611ce7611ce2612064565b610f8f565b61060d565b565b611cf6612064565b73ffffffffffffffffffffffffffffffffffffffff16600160009054906101000a900473ffffffffffffffffffffffffffffffffffffffff1673ffffffffffffffffffffffffffffffffffffffff1614611db8576040517f08c379a00000000000000000000000000000000000000000000000000000000081526004018080602001828103825260208152602001807f4f776e61626c653a2063616c6c6572206973206e6f7420746865206f776e657281525060200191505060405180910390fd5b600073ffffffffffffffffffffffffffffffffffffffff168173ffffffffffffffffffffffffffffffffffffffff161415611e3e576040517f08c379a00000000000000000000000000000000000000000000000000000000081526004018080602001828103825260268152602001806122e46026913960400191505060405180910390fd5b8073ffffffffffffffffffffffffffffffffffffffff16600160009054906101000a900473ffffffffffffffffffffffffffffffffffffffff1673ffffffffffffffffffffffffffffffffffffffff167f8be0079c531659141344cd1fd0a4f28419497f9722a3daafe3b4186f6b6457e060405160405180910390a380600160006101000a81548173ffffffffffffffffffffffffffffffffffffffff021916908373ffffffffffffffffffffffffffffffffffffffff16021790555050565b6000611f4083836040518060400160405280601e81526020017f536166654d6174683a207375627472616374696f6e206f766572666c6f77000081525061213c565b905092915050565b6000611fd4670de0b6b3a7640000611fc6600654611fb8670de0b6b3a7640000611faa88611f9c62015180611f8e670de0b6b3a76400008e61206c90919063ffffffff16565b6120f290919063ffffffff16565b61206c90919063ffffffff16565b6120f290919063ffffffff16565b61206c90919063ffffffff16565b6120f290919063ffffffff16565b905092915050565b60008082840190508381101561205a576040517f08c379a000000000000000000000000000000000000000000000000000000000815260040180806020018281038252601b8152602001807f536166654d6174683a206164646974696f6e206f766572666c6f77000000000081525060200191505060405180910390fd5b8091505092915050565b600033905090565b60008083141561207f57600090506120ec565b600082840290508284828161209057fe5b04146120e7576040517f08c379a000000000000000000000000000000000000000000000000000000000815260040180806020018281038252602181526020018061230a6021913960400191505060405180910390fd5b809150505b92915050565b600061213483836040518060400160405280601a81526020017f536166654d6174683a206469766973696f6e206279207a65726f0000000000008152506121fc565b905092915050565b60008383111582906121e9576040517f08c379a00000000000000000000000000000000000000000000000000000000081526004018080602001828103825283818151815260200191508051906020019080838360005b838110156121ae578082015181840152602081019050612193565b50505050905090810190601f1680156121db5780820380516001836020036101000a031916815260200191505b509250505060405180910390fd5b5060008385039050809150509392505050565b600080831182906122a8576040517f08c379a00000000000000000000000000000000000000000000000000000000081526004018080602001828103825283818151815260200191508051906020019080838360005b8381101561226d578082015181840152602081019050612252565b50505050905090810190601f16801561229a5780820380516001836020036101000a031916815260200191505b509250505060405180910390fd5b5060008385816122b457fe5b04905080915050939250505056fe43616e6e6f74207769746864726177206d6f7265207468616e2062616c616e63654f776e61626c653a206e6577206f776e657220697320746865207a65726f2061646472657373536166654d6174683a206d756c7469706c69636174696f6e206f766572666c6f77a264697066735822122081f2e36258355a669da1af16e3f2ac65e5c2791ce2f2b8b94bfe3574f599b09764736f6c63430007030033",
  "immutableReferences": {},
  "source": "// SPDX-License-Identifier: MIT\n\npragma solidity 0.7.3;\n\nimport \"./lib/SafeMath.sol\";\nimport \"./lib/IERC20.sol\";\nimport \"./lib/Context.sol\";\nimport \"./lib/ReentrancyGuard.sol\";\nimport \"./lib/Ownable.sol\";\n\ncontract ERC20StakingPool is ReentrancyGuard, Context, Ownable {\n  using SafeMath for uint256;\n\n  constructor(address _stakeToken, address _rewardToken, address _feeAddress, uint256 _feeRate, uint256 _returnRate) {\n    STAKE_TOKEN = IERC20(_stakeToken);\n    REWARD_TOKEN = IERC20(_rewardToken);\n    feeAddress = _feeAddress;\n    feeRate = _feeRate;\n    returnRate = _returnRate;\n    isFrozen = false;\n  }\n\n  IERC20 private STAKE_TOKEN;\n  IERC20 private REWARD_TOKEN;\n\n  address private feeAddress;\n  uint256 private feeRate;\n  uint256 private returnRate;\n  bool private isFrozen;\n  uint256 private frozenTimestamp;\n\n  uint256 public totalStaked = 0;\n\n  mapping(address => uint256) private stakedBalance;\n  mapping(address => uint256) public lastUpdateTime;\n  mapping(address => uint256) public reward;\n\n  event Staked(address indexed user, uint256 amount);\n  event Unstake(address indexed user, uint256 amount);\n  event Redeem(address indexed user, uint256 amount);\n\n  modifier updateReward(address account) {\n    if (account != address(0)) {\n      reward[account] = earned(account);\n      lastUpdateTime[account] = block.timestamp;\n    }\n    _;\n  }\n\n  function getFeeAddress() public view returns (address) {\n    return feeAddress;\n  }\n\n  function setFeeAddress(address _feeAddress) public onlyOwner nonReentrant {\n    feeAddress = _feeAddress;\n  }\n\n  function getFeeRate() public view returns (uint256) {\n    return feeRate;\n  }\n\n  function setFeeRate(uint256 _feeRate) public onlyOwner nonReentrant {\n    require(_feeRate > 1e3, \"Fee rate too small\");\n    feeRate = _feeRate;\n  }\n\n  function getReturnRate()  public view returns(uint256) {\n    return returnRate;\n  }\n\n  function setReturnRate(uint256 _returnRate) public onlyOwner nonReentrant {\n    require(_returnRate > 1e3, \"Return rate too small\");\n    returnRate = _returnRate;\n  }\n\n  function balanceOf(address account) public view returns (uint256) {\n    return stakedBalance[account];\n  }\n\n  function manualUpdate(address account) public nonReentrant {\n    if (account != address(0)) {\n      reward[account] = earned(account);\n      lastUpdateTime[account] = block.timestamp;\n    }\n  }\n\n  function earned(address account) public view returns (uint256) {\n    uint256 blockTime = block.timestamp;\n    if (isFrozen) {\n      blockTime = frozenTimestamp;\n    }\n    uint256 timeDiff = blockTime.sub(lastUpdateTime[account]);\n    uint256 staked = balanceOf(account);\n    uint256 earnedAmount = computeEarned(timeDiff, staked);\n\n    return reward[account].add(earnedAmount);\n  }\n  function computeEarned(uint256 timeDiff, uint256 staked) private view returns(uint256) {\n    return timeDiff.mul(1e18).div(86400).mul(staked).div(1e18).mul(returnRate).div(1e18);\n  }\n\n  function stake(uint256 amount) public updateReward(_msgSender()) nonReentrant {\n    require(amount >= 100, \"Too small stake\");\n    require(!isFrozen, \"Contract is frozen\");\n    uint256 fee = amount.mul(feeRate).div(1e18);\n    uint256 stakeAmount = amount.sub(fee);\n    stakedBalance[_msgSender()] = stakedBalance[_msgSender()].add(stakeAmount);\n    totalStaked = totalStaked.add(stakeAmount);\n    STAKE_TOKEN.transferFrom(_msgSender(), address(this), amount);\n    STAKE_TOKEN.transfer(feeAddress, fee);\n    emit Staked(_msgSender(), stakeAmount);\n  }\n\n  function withdraw(uint256 amount) public updateReward(_msgSender()) nonReentrant {\n    require(amount > 0, \"Cannot withdraw 0\");\n    require(amount <= balanceOf(_msgSender()), \"Cannot withdraw more than balance\");\n    STAKE_TOKEN.transfer(_msgSender(), amount);\n    stakedBalance[_msgSender()] = stakedBalance[_msgSender()].sub(amount);\n    totalStaked = totalStaked.sub(amount);\n    emit Unstake(_msgSender(), amount);\n  }\n\n  function exit() external {\n    withdraw(balanceOf(_msgSender()));\n  }\n    \n  function redeem() public updateReward(_msgSender()) nonReentrant {\n    require(reward[_msgSender()] > 0, \"Nothing to redeem\");\n    uint256 amount = reward[_msgSender()];\n    reward[_msgSender()] = 0;\n    REWARD_TOKEN.mint(_msgSender(), amount);\n    emit Redeem(_msgSender(), amount);\n  }\n}",
  "sourcePath": "/Users/tache/code/block-duelers/Block-Duelers-Contracts/contracts/ERC20StakingPool.sol",
  "compiler": {
    "name": "solc",
    "version": "0.7.3+commit.9bfce1f6.Emscripten.clang"
  },
  "schemaVersion": "3.3.2",
  "updatedAt": "2021-01-13T18:22:32.583Z",
  "devdoc": {
    "kind": "dev",
    "methods": {
      "owner()": {
        "details": "Returns the address of the current owner."
      },
      "renounceOwnership()": {
        "details": "Leaves the contract without owner. It will not be possible to call `onlyOwner` functions anymore. Can only be called by the current owner. NOTE: Renouncing ownership will leave the contract without an owner, thereby removing any functionality that is only available to the owner."
      },
      "transferOwnership(address)": {
        "details": "Transfers ownership of the contract to a new account (`newOwner`). Can only be called by the current owner."
      }
    },
    "version": 1
  },
  "userdoc": {
    "kind": "user",
    "methods": {},
    "version": 1
  }
}