{
  "contractName": "EthStakingPool",
  "abi": [
    {
      "inputs": [
        {
          "internalType": "address",
          "name": "_rewardToken",
          "type": "address"
        },
        {
          "internalType": "address payable",
          "name": "_feeAddress",
          "type": "address"
        },
        {
          "internalType": "uint256",
          "name": "_feeRate",
          "type": "uint256"
        },
        {
          "internalType": "uint256",
          "name": "_returnRate",
          "type": "uint256"
        }
      ],
      "stateMutability": "nonpayable",
      "type": "constructor"
    },
    {
      "anonymous": false,
      "inputs": [
        {
          "indexed": true,
          "internalType": "address",
          "name": "previousOwner",
          "type": "address"
        },
        {
          "indexed": true,
          "internalType": "address",
          "name": "newOwner",
          "type": "address"
        }
      ],
      "name": "OwnershipTransferred",
      "type": "event"
    },
    {
      "anonymous": false,
      "inputs": [
        {
          "indexed": true,
          "internalType": "address",
          "name": "user",
          "type": "address"
        },
        {
          "indexed": false,
          "internalType": "uint256",
          "name": "amount",
          "type": "uint256"
        }
      ],
      "name": "Redeem",
      "type": "event"
    },
    {
      "anonymous": false,
      "inputs": [
        {
          "indexed": true,
          "internalType": "address",
          "name": "user",
          "type": "address"
        },
        {
          "indexed": false,
          "internalType": "uint256",
          "name": "amount",
          "type": "uint256"
        }
      ],
      "name": "Staked",
      "type": "event"
    },
    {
      "anonymous": false,
      "inputs": [
        {
          "indexed": true,
          "internalType": "address",
          "name": "user",
          "type": "address"
        },
        {
          "indexed": false,
          "internalType": "uint256",
          "name": "amount",
          "type": "uint256"
        }
      ],
      "name": "Unstake",
      "type": "event"
    },
    {
      "inputs": [
        {
          "internalType": "address",
          "name": "",
          "type": "address"
        }
      ],
      "name": "lastUpdateTime",
      "outputs": [
        {
          "internalType": "uint256",
          "name": "",
          "type": "uint256"
        }
      ],
      "stateMutability": "view",
      "type": "function"
    },
    {
      "inputs": [],
      "name": "owner",
      "outputs": [
        {
          "internalType": "address",
          "name": "",
          "type": "address"
        }
      ],
      "stateMutability": "view",
      "type": "function"
    },
    {
      "inputs": [],
      "name": "renounceOwnership",
      "outputs": [],
      "stateMutability": "nonpayable",
      "type": "function"
    },
    {
      "inputs": [
        {
          "internalType": "address",
          "name": "",
          "type": "address"
        }
      ],
      "name": "reward",
      "outputs": [
        {
          "internalType": "uint256",
          "name": "",
          "type": "uint256"
        }
      ],
      "stateMutability": "view",
      "type": "function"
    },
    {
      "inputs": [],
      "name": "totalStaked",
      "outputs": [
        {
          "internalType": "uint256",
          "name": "",
          "type": "uint256"
        }
      ],
      "stateMutability": "view",
      "type": "function"
    },
    {
      "inputs": [
        {
          "internalType": "address",
          "name": "newOwner",
          "type": "address"
        }
      ],
      "name": "transferOwnership",
      "outputs": [],
      "stateMutability": "nonpayable",
      "type": "function"
    },
    {
      "inputs": [],
      "name": "getFeeAddress",
      "outputs": [
        {
          "internalType": "address",
          "name": "",
          "type": "address"
        }
      ],
      "stateMutability": "view",
      "type": "function"
    },
    {
      "inputs": [
        {
          "internalType": "address payable",
          "name": "_feeAddress",
          "type": "address"
        }
      ],
      "name": "setFeeAddress",
      "outputs": [],
      "stateMutability": "nonpayable",
      "type": "function"
    },
    {
      "inputs": [],
      "name": "getFeeRate",
      "outputs": [
        {
          "internalType": "uint256",
          "name": "",
          "type": "uint256"
        }
      ],
      "stateMutability": "view",
      "type": "function"
    },
    {
      "inputs": [
        {
          "internalType": "uint256",
          "name": "_feeRate",
          "type": "uint256"
        }
      ],
      "name": "setFeeRate",
      "outputs": [],
      "stateMutability": "nonpayable",
      "type": "function"
    },
    {
      "inputs": [],
      "name": "getReturnRate",
      "outputs": [
        {
          "internalType": "uint256",
          "name": "",
          "type": "uint256"
        }
      ],
      "stateMutability": "view",
      "type": "function"
    },
    {
      "inputs": [
        {
          "internalType": "uint256",
          "name": "_returnRate",
          "type": "uint256"
        }
      ],
      "name": "setReturnRate",
      "outputs": [],
      "stateMutability": "nonpayable",
      "type": "function"
    },
    {
      "inputs": [
        {
          "internalType": "address",
          "name": "account",
          "type": "address"
        }
      ],
      "name": "balanceOf",
      "outputs": [
        {
          "internalType": "uint256",
          "name": "",
          "type": "uint256"
        }
      ],
      "stateMutability": "view",
      "type": "function"
    },
    {
      "inputs": [
        {
          "internalType": "address",
          "name": "account",
          "type": "address"
        }
      ],
      "name": "manualUpdate",
      "outputs": [],
      "stateMutability": "nonpayable",
      "type": "function"
    },
    {
      "inputs": [
        {
          "internalType": "address",
          "name": "account",
          "type": "address"
        }
      ],
      "name": "earned",
      "outputs": [
        {
          "internalType": "uint256",
          "name": "",
          "type": "uint256"
        }
      ],
      "stateMutability": "view",
      "type": "function"
    },
    {
      "inputs": [],
      "name": "stake",
      "outputs": [],
      "stateMutability": "payable",
      "type": "function"
    },
    {
      "inputs": [
        {
          "internalType": "uint256",
          "name": "amount",
          "type": "uint256"
        }
      ],
      "name": "withdraw",
      "outputs": [],
      "stateMutability": "nonpayable",
      "type": "function"
    },
    {
      "inputs": [],
      "name": "exit",
      "outputs": [],
      "stateMutability": "nonpayable",
      "type": "function"
    },
    {
      "inputs": [],
      "name": "redeem",
      "outputs": [],
      "stateMutability": "nonpayable",
      "type": "function"
    }
  ],
  "bytecode": "0x6080604052600060085534801561001557600080fd5b506040516125003803806125008339818101604052608081101561003857600080fd5b8101908080519060200190929190805190602001909291908051906020019092919080519060200190929190505050600160008190555060006100886101db640100000000026401000000009004565b905080600160006101000a81548173ffffffffffffffffffffffffffffffffffffffff021916908373ffffffffffffffffffffffffffffffffffffffff1602179055508073ffffffffffffffffffffffffffffffffffffffff16600073ffffffffffffffffffffffffffffffffffffffff167f8be0079c531659141344cd1fd0a4f28419497f9722a3daafe3b4186f6b6457e060405160405180910390a35083600260006101000a81548173ffffffffffffffffffffffffffffffffffffffff021916908373ffffffffffffffffffffffffffffffffffffffff16021790555082600360006101000a81548173ffffffffffffffffffffffffffffffffffffffff021916908373ffffffffffffffffffffffffffffffffffffffff16021790555081600481905550806005819055506000600660006101000a81548160ff021916908315150217905550505050506101e3565b600033905090565b61230e806101f26000396000f3fe608060405260043610610130576000357c0100000000000000000000000000000000000000000000000000000000900480636353586b116100bd5780638705fcd4116100815780638705fcd4146104ae5780638da5cb5b146104ff578063be040fb014610540578063e9fad8ee14610557578063f2fde38b1461056e57610130565b80636353586b1461037757806370a08231146103dc578063715018a614610441578063817b1cd21461045857806384e5eed01461048357610130565b806337e332bb1161010457806337e332bb146102755780633a4b66f1146102a057806345596e2e146102aa5780634e7ceacb146102e557806353ad52561461032657610130565b80628cc262146101355780632ce9aead1461019a5780632e1a7d4d146101ff5780632f9999e71461023a575b600080fd5b34801561014157600080fd5b506101846004803603602081101561015857600080fd5b81019080803573ffffffffffffffffffffffffffffffffffffffff1690602001909291905050506105bf565b6040518082815260200191505060405180910390f35b3480156101a657600080fd5b506101e9600480360360208110156101bd57600080fd5b81019080803573ffffffffffffffffffffffffffffffffffffffff1690602001909291905050506106ae565b6040518082815260200191505060405180910390f35b34801561020b57600080fd5b506102386004803603602081101561022257600080fd5b81019080803590602001909291905050506106c6565b005b34801561024657600080fd5b506102736004803603602081101561025d57600080fd5b8101908080359060200190929190505050610a22565b005b34801561028157600080fd5b5061028a610bf6565b6040518082815260200191505060405180910390f35b6102a8610c00565b005b3480156102b657600080fd5b506102e3600480360360208110156102cd57600080fd5b8101908080359060200190929190505050610fe4565b005b3480156102f157600080fd5b506102fa6111b8565b604051808273ffffffffffffffffffffffffffffffffffffffff16815260200191505060405180910390f35b34801561033257600080fd5b506103756004803603602081101561034957600080fd5b81019080803573ffffffffffffffffffffffffffffffffffffffff1690602001909291905050506111e2565b005b34801561038357600080fd5b506103c66004803603602081101561039a57600080fd5b81019080803573ffffffffffffffffffffffffffffffffffffffff169060200190929190505050611333565b6040518082815260200191505060405180910390f35b3480156103e857600080fd5b5061042b600480360360208110156103ff57600080fd5b81019080803573ffffffffffffffffffffffffffffffffffffffff16906020019092919050505061134b565b6040518082815260200191505060405180910390f35b34801561044d57600080fd5b50610456611394565b005b34801561046457600080fd5b5061046d61151f565b6040518082815260200191505060405180910390f35b34801561048f57600080fd5b50610498611525565b6040518082815260200191505060405180910390f35b3480156104ba57600080fd5b506104fd600480360360208110156104d157600080fd5b81019080803573ffffffffffffffffffffffffffffffffffffffff16906020019092919050505061152f565b005b34801561050b57600080fd5b506105146116c6565b604051808273ffffffffffffffffffffffffffffffffffffffff16815260200191505060405180910390f35b34801561054c57600080fd5b506105556116f0565b005b34801561056357600080fd5b5061056c611ac0565b005b34801561057a57600080fd5b506105bd6004803603602081101561059157600080fd5b81019080803573ffffffffffffffffffffffffffffffffffffffff169060200190929190505050611ada565b005b600080429050600660009054906101000a900460ff16156105e05760075490505b6000610634600a60008673ffffffffffffffffffffffffffffffffffffffff1673ffffffffffffffffffffffffffffffffffffffff1681526020019081526020016000205483611cea90919063ffffffff16565b905060006106418561134b565b9050600061064f8383611d34565b90506106a381600b60008973ffffffffffffffffffffffffffffffffffffffff1673ffffffffffffffffffffffffffffffffffffffff16815260200190815260200160002054611dc890919063ffffffff16565b945050505050919050565b600a6020528060005260406000206000915090505481565b6106ce611e50565b600073ffffffffffffffffffffffffffffffffffffffff168173ffffffffffffffffffffffffffffffffffffffff16146107935761070b816105bf565b600b60008373ffffffffffffffffffffffffffffffffffffffff1673ffffffffffffffffffffffffffffffffffffffff1681526020019081526020016000208190555042600a60008373ffffffffffffffffffffffffffffffffffffffff1673ffffffffffffffffffffffffffffffffffffffff168152602001908152602001600020819055505b6002600054141561080c576040517f08c379a000000000000000000000000000000000000000000000000000000000815260040180806020018281038252601f8152602001807f5265656e7472616e637947756172643a207265656e7472616e742063616c6c0081525060200191505060405180910390fd5b60026000819055506000821161088a576040517f08c379a00000000000000000000000000000000000000000000000000000000081526004018080602001828103825260118152602001807f43616e6e6f74207769746864726177203000000000000000000000000000000081525060200191505060405180910390fd5b61089a610895611e50565b61134b565b8211156108f2576040517f08c379a00000000000000000000000000000000000000000000000000000000081526004018080602001828103825260218152602001806122376021913960400191505060405180910390fd5b61094b8260096000610902611e50565b73ffffffffffffffffffffffffffffffffffffffff1673ffffffffffffffffffffffffffffffffffffffff16815260200190815260200160002054611cea90919063ffffffff16565b60096000610957611e50565b73ffffffffffffffffffffffffffffffffffffffff1673ffffffffffffffffffffffffffffffffffffffff168152602001908152602001600020819055506109aa82600854611cea90919063ffffffff16565b6008819055506109c16109bb611e50565b83611e58565b6109c9611e50565b73ffffffffffffffffffffffffffffffffffffffff167f85082129d87b2fe11527cb1b3b7a520aeb5aa6913f88a3d8757fe40d1db02fdd836040518082815260200191505060405180910390a260016000819055505050565b610a2a611e50565b73ffffffffffffffffffffffffffffffffffffffff16600160009054906101000a900473ffffffffffffffffffffffffffffffffffffffff1673ffffffffffffffffffffffffffffffffffffffff1614610aec576040517f08c379a00000000000000000000000000000000000000000000000000000000081526004018080602001828103825260208152602001807f4f776e61626c653a2063616c6c6572206973206e6f7420746865206f776e657281525060200191505060405180910390fd5b60026000541415610b65576040517f08c379a000000000000000000000000000000000000000000000000000000000815260040180806020018281038252601f8152602001807f5265656e7472616e637947756172643a207265656e7472616e742063616c6c0081525060200191505060405180910390fd5b60026000819055506103e88111610be4576040517f08c379a00000000000000000000000000000000000000000000000000000000081526004018080602001828103825260158152602001807f52657475726e207261746520746f6f20736d616c6c000000000000000000000081525060200191505060405180910390fd5b80600581905550600160008190555050565b6000600554905090565b610c08611e50565b600073ffffffffffffffffffffffffffffffffffffffff168173ffffffffffffffffffffffffffffffffffffffff1614610ccd57610c45816105bf565b600b60008373ffffffffffffffffffffffffffffffffffffffff1673ffffffffffffffffffffffffffffffffffffffff1681526020019081526020016000208190555042600a60008373ffffffffffffffffffffffffffffffffffffffff1673ffffffffffffffffffffffffffffffffffffffff168152602001908152602001600020819055505b60026000541415610d46576040517f08c379a000000000000000000000000000000000000000000000000000000000815260040180806020018281038252601f8152602001807f5265656e7472616e637947756172643a207265656e7472616e742063616c6c0081525060200191505060405180910390fd5b600260008190555060003490506064811015610dca576040517f08c379a000000000000000000000000000000000000000000000000000000000815260040180806020018281038252600f8152602001807f546f6f20736d616c6c207374616b65000000000000000000000000000000000081525060200191505060405180910390fd5b600660009054906101000a900460ff1615610e4d576040517f08c379a00000000000000000000000000000000000000000000000000000000081526004018080602001828103825260128152602001807f436f6e74726163742069732066726f7a656e000000000000000000000000000081525060200191505060405180910390fd5b6000610e7e670de0b6b3a7640000610e7060045485611e8f90919063ffffffff16565b611f1590919063ffffffff16565b90506000610e958284611cea90919063ffffffff16565b9050610ef08160096000610ea7611e50565b73ffffffffffffffffffffffffffffffffffffffff1673ffffffffffffffffffffffffffffffffffffffff16815260200190815260200160002054611dc890919063ffffffff16565b60096000610efc611e50565b73ffffffffffffffffffffffffffffffffffffffff1673ffffffffffffffffffffffffffffffffffffffff16815260200190815260200160002081905550610f4f81600854611dc890919063ffffffff16565b600881905550610f81600360009054906101000a900473ffffffffffffffffffffffffffffffffffffffff1683611e58565b610f89611e50565b73ffffffffffffffffffffffffffffffffffffffff167f9e71bc8eea02a63969f509818f2dafb9254532904319f9dbda79b67bd34a5f3d826040518082815260200191505060405180910390a2505050600160008190555050565b610fec611e50565b73ffffffffffffffffffffffffffffffffffffffff16600160009054906101000a900473ffffffffffffffffffffffffffffffffffffffff1673ffffffffffffffffffffffffffffffffffffffff16146110ae576040517f08c379a00000000000000000000000000000000000000000000000000000000081526004018080602001828103825260208152602001807f4f776e61626c653a2063616c6c6572206973206e6f7420746865206f776e657281525060200191505060405180910390fd5b60026000541415611127576040517f08c379a000000000000000000000000000000000000000000000000000000000815260040180806020018281038252601f8152602001807f5265656e7472616e637947756172643a207265656e7472616e742063616c6c0081525060200191505060405180910390fd5b60026000819055506103e881116111a6576040517f08c379a00000000000000000000000000000000000000000000000000000000081526004018080602001828103825260128152602001807f466565207261746520746f6f20736d616c6c000000000000000000000000000081525060200191505060405180910390fd5b80600481905550600160008190555050565b6000600360009054906101000a900473ffffffffffffffffffffffffffffffffffffffff16905090565b6002600054141561125b576040517f08c379a000000000000000000000000000000000000000000000000000000000815260040180806020018281038252601f8152602001807f5265656e7472616e637947756172643a207265656e7472616e742063616c6c0081525060200191505060405180910390fd5b6002600081905550600073ffffffffffffffffffffffffffffffffffffffff168173ffffffffffffffffffffffffffffffffffffffff1614611328576112a0816105bf565b600b60008373ffffffffffffffffffffffffffffffffffffffff1673ffffffffffffffffffffffffffffffffffffffff1681526020019081526020016000208190555042600a60008373ffffffffffffffffffffffffffffffffffffffff1673ffffffffffffffffffffffffffffffffffffffff168152602001908152602001600020819055505b600160008190555050565b600b6020528060005260406000206000915090505481565b6000600960008373ffffffffffffffffffffffffffffffffffffffff1673ffffffffffffffffffffffffffffffffffffffff168152602001908152602001600020549050919050565b61139c611e50565b73ffffffffffffffffffffffffffffffffffffffff16600160009054906101000a900473ffffffffffffffffffffffffffffffffffffffff1673ffffffffffffffffffffffffffffffffffffffff161461145e576040517f08c379a00000000000000000000000000000000000000000000000000000000081526004018080602001828103825260208152602001807f4f776e61626c653a2063616c6c6572206973206e6f7420746865206f776e657281525060200191505060405180910390fd5b600073ffffffffffffffffffffffffffffffffffffffff16600160009054906101000a900473ffffffffffffffffffffffffffffffffffffffff1673ffffffffffffffffffffffffffffffffffffffff167f8be0079c531659141344cd1fd0a4f28419497f9722a3daafe3b4186f6b6457e060405160405180910390a36000600160006101000a81548173ffffffffffffffffffffffffffffffffffffffff021916908373ffffffffffffffffffffffffffffffffffffffff160217905550565b60085481565b6000600454905090565b611537611e50565b73ffffffffffffffffffffffffffffffffffffffff16600160009054906101000a900473ffffffffffffffffffffffffffffffffffffffff1673ffffffffffffffffffffffffffffffffffffffff16146115f9576040517f08c379a00000000000000000000000000000000000000000000000000000000081526004018080602001828103825260208152602001807f4f776e61626c653a2063616c6c6572206973206e6f7420746865206f776e657281525060200191505060405180910390fd5b60026000541415611672576040517f08c379a000000000000000000000000000000000000000000000000000000000815260040180806020018281038252601f8152602001807f5265656e7472616e637947756172643a207265656e7472616e742063616c6c0081525060200191505060405180910390fd5b600260008190555080600360006101000a81548173ffffffffffffffffffffffffffffffffffffffff021916908373ffffffffffffffffffffffffffffffffffffffff160217905550600160008190555050565b6000600160009054906101000a900473ffffffffffffffffffffffffffffffffffffffff16905090565b6116f8611e50565b600073ffffffffffffffffffffffffffffffffffffffff168173ffffffffffffffffffffffffffffffffffffffff16146117bd57611735816105bf565b600b60008373ffffffffffffffffffffffffffffffffffffffff1673ffffffffffffffffffffffffffffffffffffffff1681526020019081526020016000208190555042600a60008373ffffffffffffffffffffffffffffffffffffffff1673ffffffffffffffffffffffffffffffffffffffff168152602001908152602001600020819055505b60026000541415611836576040517f08c379a000000000000000000000000000000000000000000000000000000000815260040180806020018281038252601f8152602001807f5265656e7472616e637947756172643a207265656e7472616e742063616c6c0081525060200191505060405180910390fd5b60026000819055506000600b600061184c611e50565b73ffffffffffffffffffffffffffffffffffffffff1673ffffffffffffffffffffffffffffffffffffffff16815260200190815260200160002054116118fa576040517f08c379a00000000000000000000000000000000000000000000000000000000081526004018080602001828103825260118152602001807f4e6f7468696e6720746f2072656465656d00000000000000000000000000000081525060200191505060405180910390fd5b6000600b6000611908611e50565b73ffffffffffffffffffffffffffffffffffffffff1673ffffffffffffffffffffffffffffffffffffffff1681526020019081526020016000205490506000600b6000611953611e50565b73ffffffffffffffffffffffffffffffffffffffff1673ffffffffffffffffffffffffffffffffffffffff16815260200190815260200160002081905550600260009054906101000a900473ffffffffffffffffffffffffffffffffffffffff1673ffffffffffffffffffffffffffffffffffffffff166340c10f196119d7611e50565b836040518363ffffffff167c0100000000000000000000000000000000000000000000000000000000028152600401808373ffffffffffffffffffffffffffffffffffffffff16815260200182815260200192505050600060405180830381600087803b158015611a4757600080fd5b505af1158015611a5b573d6000803e3d6000fd5b50505050611a67611e50565b73ffffffffffffffffffffffffffffffffffffffff167f222838db2794d11532d940e8dec38ae307ed0b63cd97c233322e221f998767a6826040518082815260200191505060405180910390a250600160008190555050565b611ad8611ad3611ace611e50565b61134b565b6106c6565b565b611ae2611e50565b73ffffffffffffffffffffffffffffffffffffffff16600160009054906101000a900473ffffffffffffffffffffffffffffffffffffffff1673ffffffffffffffffffffffffffffffffffffffff1614611ba4576040517f08c379a00000000000000000000000000000000000000000000000000000000081526004018080602001828103825260208152602001807f4f776e61626c653a2063616c6c6572206973206e6f7420746865206f776e657281525060200191505060405180910390fd5b600073ffffffffffffffffffffffffffffffffffffffff168173ffffffffffffffffffffffffffffffffffffffff161415611c2a576040517f08c379a00000000000000000000000000000000000000000000000000000000081526004018080602001828103825260268152602001806122586026913960400191505060405180910390fd5b8073ffffffffffffffffffffffffffffffffffffffff16600160009054906101000a900473ffffffffffffffffffffffffffffffffffffffff1673ffffffffffffffffffffffffffffffffffffffff167f8be0079c531659141344cd1fd0a4f28419497f9722a3daafe3b4186f6b6457e060405160405180910390a380600160006101000a81548173ffffffffffffffffffffffffffffffffffffffff021916908373ffffffffffffffffffffffffffffffffffffffff16021790555050565b6000611d2c83836040518060400160405280601e81526020017f536166654d6174683a207375627472616374696f6e206f766572666c6f770000815250611f5f565b905092915050565b6000611dc0670de0b6b3a7640000611db2600554611da4670de0b6b3a7640000611d9688611d8862015180611d7a670de0b6b3a76400008e611e8f90919063ffffffff16565b611f1590919063ffffffff16565b611e8f90919063ffffffff16565b611f1590919063ffffffff16565b611e8f90919063ffffffff16565b611f1590919063ffffffff16565b905092915050565b600080828401905083811015611e46576040517f08c379a000000000000000000000000000000000000000000000000000000000815260040180806020018281038252601b8152602001807f536166654d6174683a206164646974696f6e206f766572666c6f77000000000081525060200191505060405180910390fd5b8091505092915050565b600033905090565b60003073ffffffffffffffffffffffffffffffffffffffff1631905080821115611e80578091505b611e8a838361201f565b505050565b600080831415611ea25760009050611f0f565b6000828402905082848281611eb357fe5b0414611f0a576040517f08c379a00000000000000000000000000000000000000000000000000000000081526004018080602001828103825260218152602001806122b86021913960400191505060405180910390fd5b809150505b92915050565b6000611f5783836040518060400160405280601a81526020017f536166654d6174683a206469766973696f6e206279207a65726f000000000000815250612170565b905092915050565b600083831115829061200c576040517f08c379a00000000000000000000000000000000000000000000000000000000081526004018080602001828103825283818151815260200191508051906020019080838360005b83811015611fd1578082015181840152602081019050611fb6565b50505050905090810190601f168015611ffe5780820380516001836020036101000a031916815260200191505b509250505060405180910390fd5b5060008385039050809150509392505050565b803073ffffffffffffffffffffffffffffffffffffffff163110156120ac576040517f08c379a000000000000000000000000000000000000000000000000000000000815260040180806020018281038252601d8152602001807f416464726573733a20696e73756666696369656e742062616c616e636500000081525060200191505060405180910390fd5b60008273ffffffffffffffffffffffffffffffffffffffff168260405180600001905060006040518083038185875af1925050503d806000811461210c576040519150601f19603f3d011682016040523d82523d6000602084013e612111565b606091505b505090508061216b576040517f08c379a000000000000000000000000000000000000000000000000000000000815260040180806020018281038252603a81526020018061227e603a913960400191505060405180910390fd5b505050565b6000808311829061221c576040517f08c379a00000000000000000000000000000000000000000000000000000000081526004018080602001828103825283818151815260200191508051906020019080838360005b838110156121e15780820151818401526020810190506121c6565b50505050905090810190601f16801561220e5780820380516001836020036101000a031916815260200191505b509250505060405180910390fd5b50600083858161222857fe5b04905080915050939250505056fe43616e6e6f74207769746864726177206d6f7265207468616e2062616c616e63654f776e61626c653a206e6577206f776e657220697320746865207a65726f2061646472657373416464726573733a20756e61626c6520746f2073656e642076616c75652c20726563697069656e74206d61792068617665207265766572746564536166654d6174683a206d756c7469706c69636174696f6e206f766572666c6f77a264697066735822122086c98d579e7e53a05be21220476d332d2b553c2e9a3120d3eeb476da29bc48bb64736f6c63430007030033",
  "immutableReferences": {},
  "source": "// SPDX-License-Identifier: MIT\n\npragma solidity 0.7.3;\n\nimport \"./lib/SafeMath.sol\";\nimport \"./lib/IERC20.sol\";\nimport \"./lib/Context.sol\";\nimport \"./lib/ReentrancyGuard.sol\";\nimport \"./lib/Ownable.sol\";\n\ncontract EthStakingPool is ReentrancyGuard, Context, Ownable {\n  using SafeMath for uint256;\n\n  constructor(address _rewardToken, address payable _feeAddress, uint256 _feeRate, uint256 _returnRate) {\n    REWARD_TOKEN = IERC20(_rewardToken);\n    feeAddress = _feeAddress;\n    feeRate = _feeRate;\n    returnRate = _returnRate;\n    isFrozen = false;\n  }\n\n  IERC20 private REWARD_TOKEN;\n\n  address payable private feeAddress;\n  uint256 private feeRate;\n  uint256 private returnRate;\n  bool private isFrozen;\n  uint256 private frozenTimestamp;\n\n  uint256 public totalStaked = 0;\n\n  mapping(address => uint256) private stakedBalance;\n  mapping(address => uint256) public lastUpdateTime;\n  mapping(address => uint256) public reward;\n\n  event Staked(address indexed user, uint256 amount);\n  event Unstake(address indexed user, uint256 amount);\n  event Redeem(address indexed user, uint256 amount);\n\n  modifier updateReward(address account) {\n    if (account != address(0)) {\n      reward[account] = earned(account);\n      lastUpdateTime[account] = block.timestamp;\n    }\n    _;\n  }\n\n  function getFeeAddress() public view returns (address) {\n    return feeAddress;\n  }\n\n  function setFeeAddress(address payable _feeAddress) public onlyOwner nonReentrant {\n    feeAddress = _feeAddress;\n  }\n\n  function getFeeRate() public view returns (uint256) {\n    return feeRate;\n  }\n\n  function setFeeRate(uint256 _feeRate) public onlyOwner nonReentrant {\n    require(_feeRate > 1e3, \"Fee rate too small\");\n    feeRate = _feeRate;\n  }\n\n  function getReturnRate()  public view returns(uint256) {\n    return returnRate;\n  }\n\n  function setReturnRate(uint256 _returnRate) public onlyOwner nonReentrant {\n    require(_returnRate > 1e3, \"Return rate too small\");\n    returnRate = _returnRate;\n  }\n\n  function balanceOf(address account) public view returns (uint256) {\n    return stakedBalance[account];\n  }\n\n  function manualUpdate(address account) public nonReentrant {\n    if (account != address(0)) {\n      reward[account] = earned(account);\n      lastUpdateTime[account] = block.timestamp;\n    }\n  }\n\n  function earned(address account) public view returns (uint256) {\n    uint256 blockTime = block.timestamp;\n    if (isFrozen) {\n      blockTime = frozenTimestamp;\n    }\n    uint256 timeDiff = blockTime.sub(lastUpdateTime[account]);\n    uint256 staked = balanceOf(account);\n    uint256 earnedAmount = computeEarned(timeDiff, staked);\n\n    return reward[account].add(earnedAmount);\n  }\n  function computeEarned(uint256 timeDiff, uint256 staked) private view returns(uint256) {\n    return timeDiff.mul(1e18).div(86400).mul(staked).div(1e18).mul(returnRate).div(1e18);\n  }\n\n  function stake() public payable updateReward(_msgSender()) nonReentrant {\n    uint256 amount = msg.value;\n    require(amount >= 100, \"Too small stake\");\n    require(!isFrozen, \"Contract is frozen\");\n    uint256 fee = amount.mul(feeRate).div(1e18);\n    uint256 stakeAmount = amount.sub(fee);\n    stakedBalance[_msgSender()] = stakedBalance[_msgSender()].add(stakeAmount);\n    totalStaked = totalStaked.add(stakeAmount);\n    _safeTransfer(feeAddress, fee);\n    emit Staked(_msgSender(), stakeAmount);\n  }\n\n  function withdraw(uint256 amount) public updateReward(_msgSender()) nonReentrant {\n    require(amount > 0, \"Cannot withdraw 0\");\n    require(amount <= balanceOf(_msgSender()), \"Cannot withdraw more than balance\");\n    stakedBalance[_msgSender()] = stakedBalance[_msgSender()].sub(amount);\n    totalStaked = totalStaked.sub(amount);\n    _safeTransfer(_msgSender(), amount);\n    emit Unstake(_msgSender(), amount);\n  }\n\n  function exit() external {\n    withdraw(balanceOf(_msgSender()));\n  }\n    \n  function redeem() public updateReward(_msgSender()) nonReentrant {\n    require(reward[_msgSender()] > 0, \"Nothing to redeem\");\n    uint256 amount = reward[_msgSender()];\n    reward[_msgSender()] = 0;\n    REWARD_TOKEN.mint(_msgSender(), amount);\n    emit Redeem(_msgSender(), amount);\n  }\n\n  function _safeTransfer(address payable to, uint256 amount) internal {\n    uint256 balance;\n    balance = address(this).balance;\n    if (amount > balance) {\n        amount = balance;\n    }\n    Address.sendValue(to, amount);\n  }\n}",
  "sourcePath": "/Users/tache/code/block-duelers/Block-Duelers-Contracts/contracts/EthStakingPool.sol",
  "compiler": {
    "name": "solc",
    "version": "0.7.3+commit.9bfce1f6.Emscripten.clang"
  },
  "schemaVersion": "3.3.2",
  "updatedAt": "2021-01-13T18:22:32.592Z",
  "devdoc": {
    "kind": "dev",
    "methods": {
      "owner()": {
        "details": "Returns the address of the current owner."
      },
      "renounceOwnership()": {
        "details": "Leaves the contract without owner. It will not be possible to call `onlyOwner` functions anymore. Can only be called by the current owner. NOTE: Renouncing ownership will leave the contract without an owner, thereby removing any functionality that is only available to the owner."
      },
      "transferOwnership(address)": {
        "details": "Transfers ownership of the contract to a new account (`newOwner`). Can only be called by the current owner."
      }
    },
    "version": 1
  },
  "userdoc": {
    "kind": "user",
    "methods": {},
    "version": 1
  }
}