{
  "contractName": "NFTSale",
  "abi": [
    {
      "inputs": [
        {
          "internalType": "address",
          "name": "dcToken",
          "type": "address"
        },
        {
          "internalType": "address",
          "name": "bdtToken",
          "type": "address"
        },
        {
          "internalType": "address",
          "name": "nftToken",
          "type": "address"
        },
        {
          "internalType": "address",
          "name": "_feeAddress",
          "type": "address"
        },
        {
          "internalType": "address",
          "name": "_authAddress",
          "type": "address"
        },
        {
          "internalType": "uint256",
          "name": "_nftDCPrice",
          "type": "uint256"
        },
        {
          "internalType": "uint256",
          "name": "_nftBDTPrice",
          "type": "uint256"
        },
        {
          "internalType": "uint256",
          "name": "_dcBurnRate",
          "type": "uint256"
        }
      ],
      "stateMutability": "nonpayable",
      "type": "constructor"
    },
    {
      "anonymous": false,
      "inputs": [
        {
          "indexed": true,
          "internalType": "uint256",
          "name": "buyId",
          "type": "uint256"
        },
        {
          "indexed": false,
          "internalType": "address",
          "name": "account",
          "type": "address"
        }
      ],
      "name": "Buy",
      "type": "event"
    },
    {
      "anonymous": false,
      "inputs": [
        {
          "indexed": true,
          "internalType": "address",
          "name": "previousOwner",
          "type": "address"
        },
        {
          "indexed": true,
          "internalType": "address",
          "name": "newOwner",
          "type": "address"
        }
      ],
      "name": "OwnershipTransferred",
      "type": "event"
    },
    {
      "inputs": [],
      "name": "authAddress",
      "outputs": [
        {
          "internalType": "address",
          "name": "",
          "type": "address"
        }
      ],
      "stateMutability": "view",
      "type": "function"
    },
    {
      "inputs": [],
      "name": "dcBurnRate",
      "outputs": [
        {
          "internalType": "uint256",
          "name": "",
          "type": "uint256"
        }
      ],
      "stateMutability": "view",
      "type": "function"
    },
    {
      "inputs": [],
      "name": "feeAddress",
      "outputs": [
        {
          "internalType": "address",
          "name": "",
          "type": "address"
        }
      ],
      "stateMutability": "view",
      "type": "function"
    },
    {
      "inputs": [],
      "name": "nftBDTPrice",
      "outputs": [
        {
          "internalType": "uint256",
          "name": "",
          "type": "uint256"
        }
      ],
      "stateMutability": "view",
      "type": "function"
    },
    {
      "inputs": [],
      "name": "nftDCPrice",
      "outputs": [
        {
          "internalType": "uint256",
          "name": "",
          "type": "uint256"
        }
      ],
      "stateMutability": "view",
      "type": "function"
    },
    {
      "inputs": [],
      "name": "owner",
      "outputs": [
        {
          "internalType": "address",
          "name": "",
          "type": "address"
        }
      ],
      "stateMutability": "view",
      "type": "function"
    },
    {
      "inputs": [
        {
          "internalType": "address",
          "name": "",
          "type": "address"
        },
        {
          "internalType": "uint256",
          "name": "",
          "type": "uint256"
        }
      ],
      "name": "pendingPurchases",
      "outputs": [
        {
          "internalType": "uint256",
          "name": "",
          "type": "uint256"
        }
      ],
      "stateMutability": "view",
      "type": "function"
    },
    {
      "inputs": [],
      "name": "renounceOwnership",
      "outputs": [],
      "stateMutability": "nonpayable",
      "type": "function"
    },
    {
      "inputs": [
        {
          "internalType": "uint256",
          "name": "",
          "type": "uint256"
        }
      ],
      "name": "sales",
      "outputs": [
        {
          "internalType": "address",
          "name": "",
          "type": "address"
        }
      ],
      "stateMutability": "view",
      "type": "function"
    },
    {
      "inputs": [],
      "name": "totalBought",
      "outputs": [
        {
          "internalType": "uint256",
          "name": "",
          "type": "uint256"
        }
      ],
      "stateMutability": "view",
      "type": "function"
    },
    {
      "inputs": [
        {
          "internalType": "address",
          "name": "newOwner",
          "type": "address"
        }
      ],
      "name": "transferOwnership",
      "outputs": [],
      "stateMutability": "nonpayable",
      "type": "function"
    },
    {
      "inputs": [
        {
          "internalType": "uint256",
          "name": "amount",
          "type": "uint256"
        }
      ],
      "name": "buyNFT",
      "outputs": [],
      "stateMutability": "nonpayable",
      "type": "function"
    },
    {
      "inputs": [
        {
          "internalType": "uint256",
          "name": "id",
          "type": "uint256"
        },
        {
          "internalType": "uint256",
          "name": "amount",
          "type": "uint256"
        },
        {
          "internalType": "uint256",
          "name": "saleId",
          "type": "uint256"
        },
        {
          "internalType": "uint8",
          "name": "v",
          "type": "uint8"
        },
        {
          "internalType": "bytes32",
          "name": "r",
          "type": "bytes32"
        },
        {
          "internalType": "bytes32",
          "name": "s",
          "type": "bytes32"
        }
      ],
      "name": "redeemERC1155",
      "outputs": [],
      "stateMutability": "nonpayable",
      "type": "function"
    },
    {
      "inputs": [
        {
          "internalType": "uint256[]",
          "name": "id",
          "type": "uint256[]"
        },
        {
          "internalType": "uint256[]",
          "name": "amount",
          "type": "uint256[]"
        },
        {
          "internalType": "uint256[]",
          "name": "saleId",
          "type": "uint256[]"
        },
        {
          "internalType": "uint8",
          "name": "v",
          "type": "uint8"
        },
        {
          "internalType": "bytes32",
          "name": "r",
          "type": "bytes32"
        },
        {
          "internalType": "bytes32",
          "name": "s",
          "type": "bytes32"
        }
      ],
      "name": "redeemBulkERC1155",
      "outputs": [],
      "stateMutability": "nonpayable",
      "type": "function"
    },
    {
      "inputs": [
        {
          "internalType": "address",
          "name": "_address",
          "type": "address"
        }
      ],
      "name": "getPendingPurchases",
      "outputs": [
        {
          "internalType": "uint256[]",
          "name": "",
          "type": "uint256[]"
        }
      ],
      "stateMutability": "view",
      "type": "function"
    },
    {
      "inputs": [
        {
          "internalType": "address",
          "name": "_address",
          "type": "address"
        }
      ],
      "name": "setFeeAddress",
      "outputs": [],
      "stateMutability": "nonpayable",
      "type": "function"
    },
    {
      "inputs": [
        {
          "internalType": "address",
          "name": "_address",
          "type": "address"
        }
      ],
      "name": "setAuthAddress",
      "outputs": [],
      "stateMutability": "nonpayable",
      "type": "function"
    },
    {
      "inputs": [
        {
          "internalType": "uint256",
          "name": "price",
          "type": "uint256"
        }
      ],
      "name": "setDCPrice",
      "outputs": [],
      "stateMutability": "nonpayable",
      "type": "function"
    },
    {
      "inputs": [
        {
          "internalType": "uint256",
          "name": "price",
          "type": "uint256"
        }
      ],
      "name": "setBDTPrice",
      "outputs": [],
      "stateMutability": "nonpayable",
      "type": "function"
    },
    {
      "inputs": [
        {
          "internalType": "uint256",
          "name": "rate",
          "type": "uint256"
        }
      ],
      "name": "setBurnRate",
      "outputs": [],
      "stateMutability": "nonpayable",
      "type": "function"
    }
  ],
  "bytecode": "0x60806040523480156200001157600080fd5b506040516200309f3803806200309f83398181016040526101008110156200003857600080fd5b8101908080519060200190929190805190602001909291908051906020019092919080519060200190929190805190602001909291908051906020019092919080519060200190929190805190602001909291905050506000620000aa620002ca640100000000026401000000009004565b9050806000806101000a81548173ffffffffffffffffffffffffffffffffffffffff021916908373ffffffffffffffffffffffffffffffffffffffff1602179055508073ffffffffffffffffffffffffffffffffffffffff16600073ffffffffffffffffffffffffffffffffffffffff167f8be0079c531659141344cd1fd0a4f28419497f9722a3daafe3b4186f6b6457e060405160405180910390a3506001808190555087600760006101000a81548173ffffffffffffffffffffffffffffffffffffffff021916908373ffffffffffffffffffffffffffffffffffffffff16021790555086600860006101000a81548173ffffffffffffffffffffffffffffffffffffffff021916908373ffffffffffffffffffffffffffffffffffffffff16021790555085600960006101000a81548173ffffffffffffffffffffffffffffffffffffffff021916908373ffffffffffffffffffffffffffffffffffffffff16021790555084600560006101000a81548173ffffffffffffffffffffffffffffffffffffffff021916908373ffffffffffffffffffffffffffffffffffffffff16021790555083600660006101000a81548173ffffffffffffffffffffffffffffffffffffffff021916908373ffffffffffffffffffffffffffffffffffffffff1602179055508260028190555081600381905550620002bc81620002d2640100000000026401000000009004565b5050505050505050620004a9565b600033905090565b620002eb620002ca640100000000026401000000009004565b73ffffffffffffffffffffffffffffffffffffffff1660008054906101000a900473ffffffffffffffffffffffffffffffffffffffff1673ffffffffffffffffffffffffffffffffffffffff1614620003ac576040517f08c379a00000000000000000000000000000000000000000000000000000000081526004018080602001828103825260208152602001807f4f776e61626c653a2063616c6c6572206973206e6f7420746865206f776e657281525060200191505060405180910390fd5b6002600154141562000426576040517f08c379a000000000000000000000000000000000000000000000000000000000815260040180806020018281038252601f8152602001807f5265656e7472616e637947756172643a207265656e7472616e742063616c6c0081525060200191505060405180910390fd5b60026001819055506000811015801562000441575060648111155b62000498576040517f08c379a00000000000000000000000000000000000000000000000000000000081526004018080602001828103825260238152602001806200307c6023913960400191505060405180910390fd5b806004819055506001808190555050565b612bc380620004b96000396000f3fe608060405234801561001057600080fd5b5060043610610149576000357c01000000000000000000000000000000000000000000000000000000009004806351ed8288116100ca578063996e75501161008e578063996e75501461058a578063a64719d7146105ec578063a7821f4e14610620578063b5f522f71461064e578063f2fde38b146106a657610149565b806351ed828814610396578063715018a6146103c457806386d77ee9146103ce5780638705fcd4146105125780638da5cb5b1461055657610149565b806335605c621161011157806335605c62146102da57806338e2c914146103085780633f8102b81461032657806341275358146103445780634a91f1951461037857610149565b806303710ebb1461014e57806310265693146101e7578063189d165e1461022b5780631b0fd2431461025957806329163d0114610277575b600080fd5b6101906004803603602081101561016457600080fd5b81019080803573ffffffffffffffffffffffffffffffffffffffff1690602001909291905050506106ea565b6040518080602001828103825283818151815260200191508051906020019060200280838360005b838110156101d35780820151818401526020810190506101b8565b505050509050019250505060405180910390f35b610229600480360360208110156101fd57600080fd5b81019080803573ffffffffffffffffffffffffffffffffffffffff169060200190929190505050610849565b005b6102576004803603602081101561024157600080fd5b81019080803590602001909291905050506109dd565b005b610261610b9e565b6040518082815260200191505060405180910390f35b6102d8600480360360c081101561028d57600080fd5b81019080803590602001909291908035906020019092919080359060200190929190803560ff1690602001909291908035906020019092919080359060200190929190505050610ba4565b005b610306600480360360208110156102f057600080fd5b810190808035906020019092919050505061102a565b005b610310611184565b6040518082815260200191505060405180910390f35b61032e61118a565b6040518082815260200191505060405180910390f35b61034c611190565b604051808273ffffffffffffffffffffffffffffffffffffffff16815260200191505060405180910390f35b6103806111b6565b6040518082815260200191505060405180910390f35b6103c2600480360360208110156103ac57600080fd5b81019080803590602001909291905050506111bc565b005b6103cc6118f0565b005b610510600480360360c08110156103e457600080fd5b810190808035906020019064010000000081111561040157600080fd5b82018360208201111561041357600080fd5b8035906020019184602083028401116401000000008311171561043557600080fd5b90919293919293908035906020019064010000000081111561045657600080fd5b82018360208201111561046857600080fd5b8035906020019184602083028401116401000000008311171561048a57600080fd5b9091929391929390803590602001906401000000008111156104ab57600080fd5b8201836020820111156104bd57600080fd5b803590602001918460208302840111640100000000831117156104df57600080fd5b9091929391929390803560ff1690602001909291908035906020019092919080359060200190929190505050611a76565b005b6105546004803603602081101561052857600080fd5b81019080803573ffffffffffffffffffffffffffffffffffffffff1690602001909291905050506120c8565b005b61055e61225c565b604051808273ffffffffffffffffffffffffffffffffffffffff16815260200191505060405180910390f35b6105d6600480360360408110156105a057600080fd5b81019080803573ffffffffffffffffffffffffffffffffffffffff16906020019092919080359060200190929190505050612285565b6040518082815260200191505060405180910390f35b6105f46122b3565b604051808273ffffffffffffffffffffffffffffffffffffffff16815260200191505060405180910390f35b61064c6004803603602081101561063657600080fd5b81019080803590602001909291905050506122d9565b005b61067a6004803603602081101561066457600080fd5b8101908080359060200190929190505050612433565b604051808273ffffffffffffffffffffffffffffffffffffffff16815260200191505060405180910390f35b6106e8600480360360208110156106bc57600080fd5b81019080803573ffffffffffffffffffffffffffffffffffffffff169060200190929190505050612466565b005b606080600c60008473ffffffffffffffffffffffffffffffffffffffff1673ffffffffffffffffffffffffffffffffffffffff1681526020019081526020016000208054905067ffffffffffffffff8111801561074657600080fd5b506040519080825280602002602001820160405280156107755781602001602082028036833780820191505090505b50905060005b600c60008573ffffffffffffffffffffffffffffffffffffffff1673ffffffffffffffffffffffffffffffffffffffff1681526020019081526020016000208054905081101561083f57600c60008573ffffffffffffffffffffffffffffffffffffffff1673ffffffffffffffffffffffffffffffffffffffff168152602001908152602001600020818154811061080f57fe5b906000526020600020015482828151811061082657fe5b602002602001018181525050808060010191505061077b565b5080915050919050565b610851612671565b73ffffffffffffffffffffffffffffffffffffffff1660008054906101000a900473ffffffffffffffffffffffffffffffffffffffff1673ffffffffffffffffffffffffffffffffffffffff1614610911576040517f08c379a00000000000000000000000000000000000000000000000000000000081526004018080602001828103825260208152602001807f4f776e61626c653a2063616c6c6572206973206e6f7420746865206f776e657281525060200191505060405180910390fd5b6002600154141561098a576040517f08c379a000000000000000000000000000000000000000000000000000000000815260040180806020018281038252601f8152602001807f5265656e7472616e637947756172643a207265656e7472616e742063616c6c0081525060200191505060405180910390fd5b600260018190555080600660006101000a81548173ffffffffffffffffffffffffffffffffffffffff021916908373ffffffffffffffffffffffffffffffffffffffff1602179055506001808190555050565b6109e5612671565b73ffffffffffffffffffffffffffffffffffffffff1660008054906101000a900473ffffffffffffffffffffffffffffffffffffffff1673ffffffffffffffffffffffffffffffffffffffff1614610aa5576040517f08c379a00000000000000000000000000000000000000000000000000000000081526004018080602001828103825260208152602001807f4f776e61626c653a2063616c6c6572206973206e6f7420746865206f776e657281525060200191505060405180910390fd5b60026001541415610b1e576040517f08c379a000000000000000000000000000000000000000000000000000000000815260040180806020018281038252601f8152602001807f5265656e7472616e637947756172643a207265656e7472616e742063616c6c0081525060200191505060405180910390fd5b600260018190555060008110158015610b38575060648111155b610b8d576040517f08c379a0000000000000000000000000000000000000000000000000000000008152600401808060200182810382526023815260200180612b4a6023913960400191505060405180910390fd5b806004819055506001808190555050565b60025481565b60026001541415610c1d576040517f08c379a000000000000000000000000000000000000000000000000000000000815260040180806020018281038252601f8152602001807f5265656e7472616e637947756172643a207265656e7472616e742063616c6c0081525060200191505060405180910390fd5b6002600181905550610c2d612671565b73ffffffffffffffffffffffffffffffffffffffff16600b600086815260200190815260200160002060009054906101000a900473ffffffffffffffffffffffffffffffffffffffff1673ffffffffffffffffffffffffffffffffffffffff1614610d00576040517f08c379a000000000000000000000000000000000000000000000000000000000815260040180806020018281038252600b8152602001807f496e76616c69642062657400000000000000000000000000000000000000000081525060200191505060405180910390fd5b6000610d0a612671565b878787604051602001808573ffffffffffffffffffffffffffffffffffffffff16815260200184815260200183815260200182815260200194505050505060405160208183030381529060405280519060200120905060008160405160200180807f19457468657265756d205369676e6564204d6573736167653a0a333200000000815250601c01828152602001915050604051602081830303815290604052805190602001209050600060018287878760405160008152602001604052604051808581526020018460ff1681526020018381526020018281526020019450505050506020604051602081039080840390855afa158015610e0f573d6000803e3d6000fd5b505050602060405103519050600660009054906101000a900473ffffffffffffffffffffffffffffffffffffffff1673ffffffffffffffffffffffffffffffffffffffff168173ffffffffffffffffffffffffffffffffffffffff1614610ede576040517f08c379a00000000000000000000000000000000000000000000000000000000081526004018080602001828103825260118152602001807f496e76616c6964207369676e617475726500000000000000000000000000000081525060200191505060405180910390fd5b6000600b600089815260200190815260200160002060006101000a81548173ffffffffffffffffffffffffffffffffffffffff021916908373ffffffffffffffffffffffffffffffffffffffff160217905550610f42610f3c612671565b88612679565b600960009054906101000a900473ffffffffffffffffffffffffffffffffffffffff1673ffffffffffffffffffffffffffffffffffffffff1663156e29f6610f88612671565b8b8b6040518463ffffffff167c0100000000000000000000000000000000000000000000000000000000028152600401808473ffffffffffffffffffffffffffffffffffffffff1681526020018381526020018281526020019350505050600060405180830381600087803b15801561100057600080fd5b505af1158015611014573d6000803e3d6000fd5b5050505050505060018081905550505050505050565b611032612671565b73ffffffffffffffffffffffffffffffffffffffff1660008054906101000a900473ffffffffffffffffffffffffffffffffffffffff1673ffffffffffffffffffffffffffffffffffffffff16146110f2576040517f08c379a00000000000000000000000000000000000000000000000000000000081526004018080602001828103825260208152602001807f4f776e61626c653a2063616c6c6572206973206e6f7420746865206f776e657281525060200191505060405180910390fd5b6002600154141561116b576040517f08c379a000000000000000000000000000000000000000000000000000000000815260040180806020018281038252601f8152602001807f5265656e7472616e637947756172643a207265656e7472616e742063616c6c0081525060200191505060405180910390fd5b6002600181905550806002819055506001808190555050565b60045481565b60035481565b600560009054906101000a900473ffffffffffffffffffffffffffffffffffffffff1681565b600a5481565b60026001541415611235576040517f08c379a000000000000000000000000000000000000000000000000000000000815260040180806020018281038252601f8152602001807f5265656e7472616e637947756172643a207265656e7472616e742063616c6c0081525060200191505060405180910390fd5b6002600181905550600081116112b3576040517f08c379a000000000000000000000000000000000000000000000000000000000815260040180806020018281038252601f8152602001807f4d7573742073656c65637420616e20616d6f756e74206f6620746f6b656e730081525060200191505060405180910390fd5b6000600190505b818111611425576112c9612671565b600b60006112e284600a546126ee90919063ffffffff16565b815260200190815260200160002060006101000a81548173ffffffffffffffffffffffffffffffffffffffff021916908373ffffffffffffffffffffffffffffffffffffffff160217905550600c600061133a612671565b73ffffffffffffffffffffffffffffffffffffffff1673ffffffffffffffffffffffffffffffffffffffff16815260200190815260200160002061138982600a546126ee90919063ffffffff16565b90806001815401808255809150506001900390600052602060002001600090919091909150556113c481600a546126ee90919063ffffffff16565b7f7534e9c9396820aad756ba27f82162930f80bef863aabdf311e7dce26a79bccd6113ed612671565b604051808273ffffffffffffffffffffffffffffffffffffffff16815260200191505060405180910390a280806001019150506112ba565b5061143b81600a546126ee90919063ffffffff16565b600a819055506000611472670de0b6b3a76400006114648460035461277690919063ffffffff16565b61277690919063ffffffff16565b905060006114a5670de0b6b3a76400006114978560025461277690919063ffffffff16565b61277690919063ffffffff16565b905060006114d160646114c36004548561277690919063ffffffff16565b6127fc90919063ffffffff16565b905060006114e8828461284690919063ffffffff16565b9050600860009054906101000a900473ffffffffffffffffffffffffffffffffffffffff1673ffffffffffffffffffffffffffffffffffffffff166323b872dd611530612671565b600560009054906101000a900473ffffffffffffffffffffffffffffffffffffffff16876040518463ffffffff167c0100000000000000000000000000000000000000000000000000000000028152600401808473ffffffffffffffffffffffffffffffffffffffff1681526020018373ffffffffffffffffffffffffffffffffffffffff1681526020018281526020019350505050602060405180830381600087803b1580156115e057600080fd5b505af11580156115f4573d6000803e3d6000fd5b505050506040513d602081101561160a57600080fd5b810190808051906020019092919050505050600760009054906101000a900473ffffffffffffffffffffffffffffffffffffffff1673ffffffffffffffffffffffffffffffffffffffff166323b872dd611662612671565b30866040518463ffffffff167c0100000000000000000000000000000000000000000000000000000000028152600401808473ffffffffffffffffffffffffffffffffffffffff1681526020018373ffffffffffffffffffffffffffffffffffffffff1681526020018281526020019350505050602060405180830381600087803b1580156116f057600080fd5b505af1158015611704573d6000803e3d6000fd5b505050506040513d602081101561171a57600080fd5b810190808051906020019092919050505050600760009054906101000a900473ffffffffffffffffffffffffffffffffffffffff1673ffffffffffffffffffffffffffffffffffffffff1663a9059cbb600560009054906101000a900473ffffffffffffffffffffffffffffffffffffffff16836040518363ffffffff167c0100000000000000000000000000000000000000000000000000000000028152600401808373ffffffffffffffffffffffffffffffffffffffff16815260200182815260200192505050602060405180830381600087803b1580156117fd57600080fd5b505af1158015611811573d6000803e3d6000fd5b505050506040513d602081101561182757600080fd5b810190808051906020019092919050505050600760009054906101000a900473ffffffffffffffffffffffffffffffffffffffff1673ffffffffffffffffffffffffffffffffffffffff166342966c68836040518263ffffffff167c010000000000000000000000000000000000000000000000000000000002815260040180828152602001915050600060405180830381600087803b1580156118ca57600080fd5b505af11580156118de573d6000803e3d6000fd5b50505050505050506001808190555050565b6118f8612671565b73ffffffffffffffffffffffffffffffffffffffff1660008054906101000a900473ffffffffffffffffffffffffffffffffffffffff1673ffffffffffffffffffffffffffffffffffffffff16146119b8576040517f08c379a00000000000000000000000000000000000000000000000000000000081526004018080602001828103825260208152602001807f4f776e61626c653a2063616c6c6572206973206e6f7420746865206f776e657281525060200191505060405180910390fd5b600073ffffffffffffffffffffffffffffffffffffffff1660008054906101000a900473ffffffffffffffffffffffffffffffffffffffff1673ffffffffffffffffffffffffffffffffffffffff167f8be0079c531659141344cd1fd0a4f28419497f9722a3daafe3b4186f6b6457e060405160405180910390a360008060006101000a81548173ffffffffffffffffffffffffffffffffffffffff021916908373ffffffffffffffffffffffffffffffffffffffff160217905550565b60026001541415611aef576040517f08c379a000000000000000000000000000000000000000000000000000000000815260040180806020018281038252601f8152602001807f5265656e7472616e637947756172643a207265656e7472616e742063616c6c0081525060200191505060405180910390fd5b60026001819055506000611b01612671565b8a8a8a8a8a8a604051602001808873ffffffffffffffffffffffffffffffffffffffff16815260200180602001806020018060200184810384528a8a82818152602001925060200280828437600081840152601f19601f8201169050808301925050508481038352888882818152602001925060200280828437600081840152601f19601f8201169050808301925050508481038252868682818152602001925060200280828437600081840152601f19601f8201169050808301925050509a505050505050505050505060405160208183030381529060405280519060200120905060008160405160200180807f19457468657265756d205369676e6564204d6573736167653a0a333200000000815250601c01828152602001915050604051602081830303815290604052805190602001209050600060018287878760405160008152602001604052604051808581526020018460ff1681526020018381526020018281526020019450505050506020604051602081039080840390855afa158015611c93573d6000803e3d6000fd5b505050602060405103519050600660009054906101000a900473ffffffffffffffffffffffffffffffffffffffff1673ffffffffffffffffffffffffffffffffffffffff168173ffffffffffffffffffffffffffffffffffffffff1614611d62576040517f08c379a00000000000000000000000000000000000000000000000000000000081526004018080602001828103825260118152602001807f496e76616c6964207369676e617475726500000000000000000000000000000081525060200191505060405180910390fd5b898990508c8c905014611ddd576040517f08c379a000000000000000000000000000000000000000000000000000000000815260040180806020018281038252601c8152602001807f496e76616c696420696420616e6420616d6f756e74206c656e6774680000000081525060200191505060405180910390fd5b60005b88889050811015611f4a57611df3612671565b73ffffffffffffffffffffffffffffffffffffffff16600b60008b8b85818110611e1957fe5b90506020020135815260200190815260200160002060009054906101000a900473ffffffffffffffffffffffffffffffffffffffff1673ffffffffffffffffffffffffffffffffffffffff1614611ed8576040517f08c379a000000000000000000000000000000000000000000000000000000000815260040180806020018281038252600f8152602001807f496e76616c69642073616c65206964000000000000000000000000000000000081525060200191505060405180910390fd5b6000600b60008b8b85818110611eea57fe5b90506020020135815260200190815260200160002060006101000a81548173ffffffffffffffffffffffffffffffffffffffff021916908373ffffffffffffffffffffffffffffffffffffffff1602179055508080600101915050611de0565b50611f9d611f56612671565b898980806020026020016040519081016040528093929190818152602001838360200280828437600081840152601f19601f82011690508083019250505050505050612890565b60005b8c8c90508110156120b257600960009054906101000a900473ffffffffffffffffffffffffffffffffffffffff1673ffffffffffffffffffffffffffffffffffffffff1663156e29f6611ff1612671565b8f8f85818110611ffd57fe5b905060200201358e8e8681811061201057fe5b905060200201356040518463ffffffff167c0100000000000000000000000000000000000000000000000000000000028152600401808473ffffffffffffffffffffffffffffffffffffffff1681526020018381526020018281526020019350505050600060405180830381600087803b15801561208d57600080fd5b505af11580156120a1573d6000803e3d6000fd5b505050508080600101915050611fa0565b5050505060018081905550505050505050505050565b6120d0612671565b73ffffffffffffffffffffffffffffffffffffffff1660008054906101000a900473ffffffffffffffffffffffffffffffffffffffff1673ffffffffffffffffffffffffffffffffffffffff1614612190576040517f08c379a00000000000000000000000000000000000000000000000000000000081526004018080602001828103825260208152602001807f4f776e61626c653a2063616c6c6572206973206e6f7420746865206f776e657281525060200191505060405180910390fd5b60026001541415612209576040517f08c379a000000000000000000000000000000000000000000000000000000000815260040180806020018281038252601f8152602001807f5265656e7472616e637947756172643a207265656e7472616e742063616c6c0081525060200191505060405180910390fd5b600260018190555080600560006101000a81548173ffffffffffffffffffffffffffffffffffffffff021916908373ffffffffffffffffffffffffffffffffffffffff1602179055506001808190555050565b60008060009054906101000a900473ffffffffffffffffffffffffffffffffffffffff16905090565b600c602052816000526040600020818154811061229e57fe5b90600052602060002001600091509150505481565b600660009054906101000a900473ffffffffffffffffffffffffffffffffffffffff1681565b6122e1612671565b73ffffffffffffffffffffffffffffffffffffffff1660008054906101000a900473ffffffffffffffffffffffffffffffffffffffff1673ffffffffffffffffffffffffffffffffffffffff16146123a1576040517f08c379a00000000000000000000000000000000000000000000000000000000081526004018080602001828103825260208152602001807f4f776e61626c653a2063616c6c6572206973206e6f7420746865206f776e657281525060200191505060405180910390fd5b6002600154141561241a576040517f08c379a000000000000000000000000000000000000000000000000000000000815260040180806020018281038252601f8152602001807f5265656e7472616e637947756172643a207265656e7472616e742063616c6c0081525060200191505060405180910390fd5b6002600181905550806003819055506001808190555050565b600b6020528060005260406000206000915054906101000a900473ffffffffffffffffffffffffffffffffffffffff1681565b61246e612671565b73ffffffffffffffffffffffffffffffffffffffff1660008054906101000a900473ffffffffffffffffffffffffffffffffffffffff1673ffffffffffffffffffffffffffffffffffffffff161461252e576040517f08c379a00000000000000000000000000000000000000000000000000000000081526004018080602001828103825260208152602001807f4f776e61626c653a2063616c6c6572206973206e6f7420746865206f776e657281525060200191505060405180910390fd5b600073ffffffffffffffffffffffffffffffffffffffff168173ffffffffffffffffffffffffffffffffffffffff1614156125b4576040517f08c379a0000000000000000000000000000000000000000000000000000000008152600401808060200182810382526026815260200180612b246026913960400191505060405180910390fd5b8073ffffffffffffffffffffffffffffffffffffffff1660008054906101000a900473ffffffffffffffffffffffffffffffffffffffff1673ffffffffffffffffffffffffffffffffffffffff167f8be0079c531659141344cd1fd0a4f28419497f9722a3daafe3b4186f6b6457e060405160405180910390a3806000806101000a81548173ffffffffffffffffffffffffffffffffffffffff021916908373ffffffffffffffffffffffffffffffffffffffff16021790555050565b600033905090565b6060600167ffffffffffffffff8111801561269357600080fd5b506040519080825280602002602001820160405280156126c25781602001602082028036833780820191505090505b50905081816000815181106126d357fe5b6020026020010181815250506126e98382612890565b505050565b60008082840190508381101561276c576040517f08c379a000000000000000000000000000000000000000000000000000000000815260040180806020018281038252601b8152602001807f536166654d6174683a206164646974696f6e206f766572666c6f77000000000081525060200191505060405180910390fd5b8091505092915050565b60008083141561278957600090506127f6565b600082840290508284828161279a57fe5b04146127f1576040517f08c379a0000000000000000000000000000000000000000000000000000000008152600401808060200182810382526021815260200180612b6d6021913960400191505060405180910390fd5b809150505b92915050565b600061283e83836040518060400160405280601a81526020017f536166654d6174683a206469766973696f6e206279207a65726f00000000000081525061299d565b905092915050565b600061288883836040518060400160405280601e81526020017f536166654d6174683a207375627472616374696f6e206f766572666c6f770000815250612a63565b905092915050565b6000600c60008473ffffffffffffffffffffffffffffffffffffffff1673ffffffffffffffffffffffffffffffffffffffff168152602001908152602001600020905060005b82518110156129975760005b8280549050811015612989578281815481106128fa57fe5b906000526020600020015484838151811061291157fe5b6020026020010151141561297c578260018480549050038154811061293257fe5b906000526020600020015483828154811061294957fe5b90600052602060002001819055508280548061296157fe5b60019003818190600052602060002001600090559055612989565b80806001019150506128e2565b5080806001019150506128d6565b50505050565b60008083118290612a49576040517f08c379a00000000000000000000000000000000000000000000000000000000081526004018080602001828103825283818151815260200191508051906020019080838360005b83811015612a0e5780820151818401526020810190506129f3565b50505050905090810190601f168015612a3b5780820380516001836020036101000a031916815260200191505b509250505060405180910390fd5b506000838581612a5557fe5b049050809150509392505050565b6000838311158290612b10576040517f08c379a00000000000000000000000000000000000000000000000000000000081526004018080602001828103825283818151815260200191508051906020019080838360005b83811015612ad5578082015181840152602081019050612aba565b50505050905090810190601f168015612b025780820380516001836020036101000a031916815260200191505b509250505060405180910390fd5b506000838503905080915050939250505056fe4f776e61626c653a206e6577206f776e657220697320746865207a65726f20616464726573734275726e2072617465206d757374206265206265747765656e203020616e6420313030536166654d6174683a206d756c7469706c69636174696f6e206f766572666c6f77a264697066735822122011a0a4ad1e71ca2882c5187b0fac4f8fe1940bb2eb6ca863eaafc668db11111d64736f6c634300070300334275726e2072617465206d757374206265206265747765656e203020616e6420313030",
  "immutableReferences": {},
  "source": "// SPDX-License-Identifier: MIT\n\npragma solidity 0.7.3;\n\nimport \"./lib/Context.sol\";\nimport \"./lib/SafeMath.sol\";\nimport \"./lib/Ownable.sol\";\nimport \"./lib/IERC20.sol\";\nimport \"./lib/IERC1155.sol\";\nimport \"./lib/ReentrancyGuard.sol\";\n\ncontract NFTSale is Context, Ownable, ReentrancyGuard {\n    using SafeMath for uint256;\n\n    constructor (address dcToken, address bdtToken, address nftToken, address _feeAddress, address _authAddress, uint256 _nftDCPrice, uint256 _nftBDTPrice, uint256 _dcBurnRate) {\n        DC_TOKEN = IERC20(dcToken);\n        BDT_TOKEN = IERC20(bdtToken);\n        NFT_TOKEN = IERC1155(nftToken);\n    \n        feeAddress = _feeAddress;\n        authAddress = _authAddress;\n\n        nftDCPrice = _nftDCPrice;\n        nftBDTPrice = _nftBDTPrice;\n        setBurnRate(_dcBurnRate);\n    }\n\n    event Buy(uint256 indexed buyId, address account);\n\n    uint256 public nftDCPrice;\n    uint256 public nftBDTPrice;\n    uint256 public dcBurnRate;\n    address public feeAddress;\n    address public authAddress;\n    IERC20 private DC_TOKEN;\n    IERC20 private BDT_TOKEN;\n    IERC1155 private NFT_TOKEN;\n\n\n    uint256 public totalBought;\n    mapping(uint256 => address) public sales;\n    mapping(address => uint256[]) public pendingPurchases;\n\n    function buyNFT(uint256 amount) public nonReentrant {\n        require(amount > 0, \"Must select an amount of tokens\");\n        for (uint256 i = 1; i <= amount; i++) {\n            sales[totalBought.add(i)] = _msgSender();\n            pendingPurchases[_msgSender()].push(totalBought.add(i));\n            emit Buy(totalBought.add(i), _msgSender());\n        }\n        totalBought = totalBought.add(amount);\n        uint256 costBDT = nftBDTPrice.mul(amount).mul(1e18);\n        uint256 costDC = nftDCPrice.mul(amount).mul(1e18);\n        uint256 dcBurned = costDC.mul(dcBurnRate).div(1e2);\n        uint256 dcFee = costDC.sub(dcBurned);\n        BDT_TOKEN.transferFrom(_msgSender(), feeAddress, costBDT);\n        DC_TOKEN.transferFrom(_msgSender(), address(this), costDC);\n        DC_TOKEN.transfer(feeAddress, dcFee);\n        DC_TOKEN.burn(dcBurned);\n    }\n\n    function redeemERC1155(uint256 id, uint256 amount, uint256 saleId, uint8 v, bytes32 r, bytes32 s) public nonReentrant {\n      require(sales[saleId] == _msgSender(), \"Invalid bet\");\n      bytes32 hash = keccak256(abi.encode(_msgSender(), id, amount, saleId));\n      bytes32 messageHash = keccak256(abi.encodePacked(\"\\x19Ethereum Signed Message:\\n32\", hash));\n      address signer = ecrecover(messageHash, v, r, s);\n      require(signer == authAddress, \"Invalid signature\");\n      sales[saleId] = address(0);\n      clearPendingPurchase(_msgSender(), saleId);\n      NFT_TOKEN.mint(_msgSender(), id, amount);\n    }\n    \n    function redeemBulkERC1155(uint256[] calldata id, uint256[] calldata amount, uint256[] calldata saleId, uint8 v, bytes32 r, bytes32 s) public nonReentrant {\n      bytes32 hash = keccak256(abi.encode(_msgSender(), id, amount, saleId));\n      bytes32 messageHash = keccak256(abi.encodePacked(\"\\x19Ethereum Signed Message:\\n32\", hash));\n      address signer = ecrecover(messageHash, v, r, s);\n      require(signer == authAddress, \"Invalid signature\");\n      require(id.length == amount.length, \"Invalid id and amount length\");\n\n      for (uint256 i = 0; i < saleId.length; i++) {\n          require(sales[saleId[i]] == _msgSender(), \"Invalid sale id\");\n          sales[saleId[i]] = address(0);\n      }\n\n      clearPendingPurchases(_msgSender(), saleId);\n  \n      for (uint256 i = 0; i < id.length; i++) {\n        NFT_TOKEN.mint(_msgSender(), id[i], amount[i]);\n      }\n    }\n\n    function getPendingPurchases(address _address) public view returns(uint256[] memory) {\n      uint256[] memory purchases = new uint256[](pendingPurchases[_address].length);\n      for (uint256 i = 0; i < pendingPurchases[_address].length; i++) {\n        purchases[i] = pendingPurchases[_address][i];\n      }\n      return purchases;\n    }\n\n    function clearPendingPurchase(address _address, uint256 purchase) internal {\n      uint256[] memory purchases = new uint256[](1);\n      purchases[0] = purchase;\n      clearPendingPurchases(_address, purchases);\n    }\n    \n    function clearPendingPurchases(address _address, uint256[] memory purchases) internal {\n      uint256[] storage data = pendingPurchases[_address];\n      for (uint256 i = 0; i < purchases.length; i++) {\n        for (uint256 j = 0; j < data.length; j++) { \n          if (purchases[i] == data[j]) {\n            data[j] = data[data.length - 1];\n            data.pop();\n            break;\n          }\n        }\n      }\n    }\n\n    function setFeeAddress(address _address) public onlyOwner nonReentrant {\n        feeAddress = _address;\n    }\n\n    function setAuthAddress(address _address) public onlyOwner nonReentrant {\n        authAddress = _address;\n    }\n\n    function setDCPrice(uint256 price) public onlyOwner nonReentrant {\n      nftDCPrice = price;\n    }\n\n    function setBDTPrice(uint256 price) public onlyOwner nonReentrant {\n      nftBDTPrice = price;\n    }\n\n    function setBurnRate(uint256 rate) public onlyOwner nonReentrant {\n      require(rate >= 0 && rate <= 100, \"Burn rate must be between 0 and 100\");\n      dcBurnRate = rate;\n    }\n\n}",
  "sourcePath": "/Users/tache/code/block-duelers/Block-Duelers-Contracts/contracts/NFTSale.sol",
  "compiler": {
    "name": "solc",
    "version": "0.7.3+commit.9bfce1f6.Emscripten.clang"
  },
  "schemaVersion": "3.3.2",
  "updatedAt": "2021-01-21T15:42:43.792Z",
  "devdoc": {
    "kind": "dev",
    "methods": {
      "owner()": {
        "details": "Returns the address of the current owner."
      },
      "renounceOwnership()": {
        "details": "Leaves the contract without owner. It will not be possible to call `onlyOwner` functions anymore. Can only be called by the current owner. NOTE: Renouncing ownership will leave the contract without an owner, thereby removing any functionality that is only available to the owner."
      },
      "transferOwnership(address)": {
        "details": "Transfers ownership of the contract to a new account (`newOwner`). Can only be called by the current owner."
      }
    },
    "version": 1
  },
  "userdoc": {
    "kind": "user",
    "methods": {},
    "version": 1
  }
}